:020000040800F2
:10000000005000208D0100088901000889010008C6
:10001000890100088901000889010008000000002A
:10002000000000000000000000000000890100083E
:100030008901000800000000890100084101000852
:100040008901000889010008890100088901000868
:100050008901000889010008890100088901000858
:100060008901000889010008890100088901000848
:100070008901000889010008890100088901000838
:100080008901000889010008890100088901000828
:100090008901000889010008890100088901000818
:1000A0008901000889010008890100088901000808
:1000B00089010008890100088901000889010008F8
:1000C00089010008890100088901000889010008E8
:1000D0008901000831010008890100088901000830
:1000E00089010008890100088901000889010008C8
:1000F00089010008890100088901000889010008B8
:1001000089010008890100088901000889010008A7
:100110008901000889010008890100088901000897
:100120008901000889010008890100088901000887
:10013000024B5868C0B201F09FB800BF00380140C0
:1001400000F068BE08B50E4800F064FC0C4801F0F1
:10015000F3F80B4C0B4D94F87A30FF2B05D101F0DE
:10016000F1F894F87A30FF2BF9D0284600F058FBCC
:1001700040F20111284600F095FB00F03FFEEAE74F
:100180000000002000FC0008FEE700BF094A0A4802
:1001900008B5121A02D0094901F0A6FB084A09481D
:1001A000121A02D0002101F0ADFBBDE80840FFF7B4
:1001B000C9BF00BF2C010020000000203819000832
:1001C000400100202C01002000284AD02DE9F041F8
:1001D000C27D0446531E0F2B82B03CD80378012BFE
:1001E00039D84378012B36D88378012B33D8C3789C
:1001F000012B30D80379012B2DD84379012B2AD834
:10020000037E072B27D800252B462E4612E001221D
:10021000CBB201A88DF804208DF805308DF806606A
:100220008DF8076000F064FBA8B9E27D0135EBB200
:100230009A4218D92344DB79112B0CD8072B0ED9FD
:10024000092BA3F10801E2D90F2BA3F10A03EDD882
:100250000222DBB2DDE7022002B0BDE8F08100221D
:10026000D7E702207047A579032DF4D8092000F0C4
:1002700033FC0023032101A88DF80450ADF80530AC
:100280008DF8073000F052FC9F4B9A6822F0010273
:100290009A609A68A17842EA41029A605A68217885
:1002A00042EA01225A609A68617842EA01229A6021
:1002B0009A68E17842EAC1229A609A68217942EA12
:1002C00001529A605A68617942EA41125A60DA6AC8
:1002D00022F47002DA62E57DDA6A691E42EA0152AE
:1002E000DA62002D00F012815A6B267E22F01F0286
:1002F0005A63E279586B092A40EA0200C9B258638E
:1003000000F22A814FF0070C1F6902EB420206FA45
:1003100002F00CFA02F227EA02021A611A69024399
:100320001A61012D00F04E81774A536B23F47873E4
:100330005363237A506B092B40EA4310506300F259
:100340001D814FF0070C176903EB430306FA03F016
:100350000CFA03F327EA03031361136903431361E0
:10036000022D00F02F81684A536B23F4F843536346
:10037000637A506B092B40EA8320506300F21081AE
:100380004FF0070C176903EB430306FA03F00CFA6E
:1003900003F327EA03031361136903431361032D76
:1003A00000F01081584A536B23F478235363A37AE7
:1003B000506B092B40EAC330506300F205814FF0C7
:1003C000070C176903EB430306FA03F00CFA03F377
:1003D00027EA03031361136903431361042D00F03B
:1003E000F180494A536B23F0F8735363E37A506BFF
:1003F000092B40EA0350506300F2F8804FF0070CDD
:10040000176903EB430306FA03F00CFA03F327EA38
:1004100003031361136903431361042940F2098143
:10042000394A536B23F078535363237B516B092B69
:1004300041EA4361516300F2EB800727106903EB47
:10044000430306FA03F107FA03F320EA03031361F7
:1004500013690B43136106218D4257D94FF0070CE6
:1004600001EB810001EB0C031C444FF01F0E264AE8
:100470003C38CBB212E013690CFA07F823EA080300
:100480001361136906FA07F71F4317610131CBB2F5
:100490009D4200F1050004F1010437D90B2B21D94D
:1004A000D36A0EFA00F723EA0703D3622378D2F85F
:1004B0002C8003FA00F747EA0807D762092B03EB01
:1004C0004307D8D90A3BDBB2D76803EB43030CFAE6
:1004D00003F827EA0807D760D76806FA03F33B4317
:1004E000D360D3E7136B00F11E070EFA07F823EA77
:1004F000080313632378D2F8308003FA07F747EA3A
:1005000008071763DAE700BF0024014000214A4AC8
:10051000936843F0010393600191019BB3F57A7FE7
:1005200006D2019B01330193019BB3F57A7FF8D387
:1005300042F21073404A916841F001019160916864
:1005400041F004019160906810F004003FF484AE23
:10055000013BF8D103207FE64FF0070C0A3AD2B2F4
:10056000DF6802EB420206FA02F00CFA02F227EA16
:100570000202DA60DA680243DA60D2E64FF0070C72
:100580000A3BDBB2D76803EB430306FA03F00CFA2D
:1005900003F327EA0303D360D3680343D360DFE6A2
:1005A0004FF0070C0A3BDBB2D76803EB430306FAB4
:1005B00003F00CFA03F327EA0303D360D368034381
:1005C000D360ECE6294647E74FF0070C0A3BDBB265
:1005D000D76803EB430306FA03F00CFA03F327EAA8
:1005E0000303D360D3680343D360F7E64FF0070CEF
:1005F0000A3BDBB2D76803EB430306FA03F00CFABD
:1006000003F327EA0303D360D3680343D36004E70B
:1006100007270A3BDBB2D06803EB430306FA03F17A
:1006200007FA03F320EA0303D360D3680B43D360D4
:1006300011E7052110E700BF00240140074B9A682D
:10064000D10708D59A68D20505D59A68002042F4EA
:1006500080029A6070470420704700BF0024014068
:10066000002876D010B503780446062B6FD843785F
:10067000032B6CD88378012B69D8C378012B66D8FB
:100680000379022B63D84379022B60D88379012B3D
:100690005DD8C379012B5AD8037A012B57D8437AF6
:1006A000012B54D8837A012B51D84369002B4ED0AB
:1006B000C368002B4BD00369002B48D0002000F00A
:1006C00027FA14222378002002FB03F303F180436E
:1006D00003F500339A6822F001029A609A68617803
:1006E00042EA01329A609A68A17842EA81129A60DD
:1006F0009A68E17842EAC1129A609A68217942EADE
:1007000001229A609A68617942EA81229A609A6825
:10071000A17942EA41129A609A68E17942EA0112AB
:100720009A609A68217A42EAC1029A609A68617A6C
:1007300042EA81029A609A68A17A42EA41029A608A
:100740006269DA60E2681A6122695A6110BD0120AB
:1007500010BD0120704700BF062815D830B40D4CDD
:1007600000EB800204EB8202D168830071B10F219B
:10077000656801FA03F32B4363609368002030BC83
:1007800043F001039360704701207047022030BCA2
:10079000704700BF000002401C4B10B498420ED8B6
:1007A0001B4A136843F008031360194B1A6822F0C0
:1007B00007021A601A681A60002010BC7047144BB8
:1007C000144C1A68A04222F008021A60EDD9196888
:1007D000114A41F0100119601968024421F0070123
:1007E000A242196006D21A68002042F0010210BC31
:1007F0001A607047094A0244A242DDD21A680020FA
:1008000042F0020210BC1A60704700BF00127A006A
:100810000020024000366E01FFC991FEFF9323FDC8
:1008200000F17843B3F5003F32D21B4AD368DB07AF
:10083000FCD41369190622D4174B1A6942F002023C
:100840001A6158611A6942F040021A61DA68D207E7
:10085000FCD4DA68500717D4DA68D1061AD4DA68FB
:100860000020920644BF2022DA600B4B1A6922F066
:1008700002021A611A6942F080021A617047074940
:10088000074B51605360D7E704220120DA60EDE79F
:10089000012070471022F8E700200240230167453D
:1008A000AB89EFCD10B40F4AD368DC07FCD40E4CF3
:1008B0000E4B5460536013690A4C43F001031361FB
:1008C0000180E368DA07FCD4E36824225B0744BFB5
:1008D0000423E360034B10BCDA601A6942F0800223
:1008E0001A6170470020024023016745AB89EFCDB4
:1008F000002842D038B503780446062B28D8427821
:100900000F2A25D88278032A22D8C278032A1FD832
:10091000981C1C4AC0B252F8235000F0DDF86378EE
:10092000072B17D90F2B2AD80F21083B6A689B0089
:10093000994022EA01026A6094F802C0E27869688C
:1009400042EA8C0202FA03F30B4300206B6038BDCD
:10095000022038BD0F212A689B00994022EA01023B
:100960002A6094F802C0E278296842EA8C0202FA0E
:1009700003F30B4300202B6038BD0220704700209A
:1009800038BD00BF14190008062817D80F2915D83C
:10099000012A13D8124B072910B453F820400FD85E
:1009A00023688800C34003F00303BBB101237AB17D
:1009B000002003FA01F1216110BC7047022070474A
:1009C0006368A1F108008000C34003F00303ECE773
:1009D00003FA01F11046616110BC70470320EBE798
:1009E00014190008044B5A6812F4401F1CBF4FF43E
:1009F00000525A61704700BF00100140044B5A6812
:100A000012F4401F1CBF4FF400521A61704700BF20
:100A1000001001400346F0B503241E4A1E4903F1AD
:100A2000020C1E4883B0012700262546C1F810C0DD
:100A3000136000F065F98DF80540013401A8E4B2B7
:100A40008DF804708DF806608DF80750FFF750FFA1
:100A5000082CF0D11248FFF74BFF1248FFF748FF70
:100A60001148FFF745FF114800F0DCF91048FFF787
:100A7000ABFB0948FFF7F4FD0020FFF76DFEFFF721
:100A8000DDFD0C4800F00AFA002003B0BDE8F0409C
:100A900000F034BB2C010020B8000020E40000204E
:100AA000D0000020D4000020D8000020DC0000206E
:100AB0007C000020EC000020012243099B0003F190
:100AC000E023D3F8001100F01F0002FA00F0084301
:100AD000C3F80001704700BF0123054A03FA00F084
:100AE0009169014202D193691843906100207047D7
:100AF000001002400123054A03FA00F0D1690142C7
:100B000002D1D3691843D061002070470010024021
:100B10000123054A03FA00F05169014202D15369E9
:100B200018435061002070470010024000284BD04D
:100B300030B4032945D8DFE801F0112233020478EC
:100B4000032C3ED80020224B596821F440415960C3
:100B50005A6842EA84325A6030BC7047C2780F2A21
:100B60002FD81B4B08465C681A4D24F0F0045C60DB
:100B7000596841EA021159602A7030BC70474278C6
:100B8000072A1ED8124B144C5968002021F4E0614A
:100B90005960596841EA02215960227030BC70479F
:100BA0008278072A12D80A4B0C4C5968002021F48D
:100BB00060515960596841EAC2215960227030BCC5
:100BC0007047022030BC7047022070470846C3E7D8
:100BD00000100240340100203501002036010020C1
:100BE0003E4B984277D83E4B1A6892035BD41A6802
:100BF000910770D55A683B4922F480325A603A4BCB
:100C000010B5984258D8394B98424FF000035ED83F
:100C10009C469E46B0FBF1F03149354C4A6802389B
:100C200022F4E0624A604A680E2843EA02034B60FD
:100C300084F800C04A6822F440424A604B6843EAA4
:100C40000E034B603FD84B6823F470134B604B6826
:100C500043EA804048600A6842F2107342F08072B2
:100C60000A6001E0013B30D00A689201FAD54B6876
:100C700042F2107223F003034B604B6843F002030F
:100C80004B60174901E0013A1FD04B68C3F3810361
:100C9000022BF8D100231749174A0B70137018461E
:100CA00084F800C010BD5A68144942F480325A607A
:100CB0000D4B10B59842A6D94FF480634FF0040C49
:100CC0004FF4004EA6E7022010BD032010BD4FF4E4
:100CD000004E9C469EE70220704700BF00A24A04D7
:100CE0000010024000093D0000512502001BB70022
:100CF00035010020360100203401002000127A0066
:100D000000283FD010B504464068FFF745FDE0B924
:100D10002378012B19D8002B2BD01B4B9A699006F6
:100D200003D49A6942F020029A61174A136843F487
:100D30008033136013689903FCD56068FFF750FF98
:100D4000124B62681A6000B910BD0F4942F211736C
:100D50000A6842F001020A6001E0013B02D00A6821
:100D60009207FAD5084A0320536823F0030353601F
:100D700010BD054A136843F00103136013689B0715
:100D8000FCD5DAE702207047001002403001002055
:100D9000094B1878032808D90223084A04388340ED
:100DA0001068DBB2B0FBF3F070470123034A106810
:100DB000B0FBF3F0704700BF350100203001002088
:100DC000094B1878032808D90223084A04388340BD
:100DD0001068DBB2B0FBF3F070470123034A1068E0
:100DE000B0FBF3F0704700BF360100203001002057
:100DF000014B1868704700BF300100200349044BC5
:100E0000CA6802F4E0621343CB60704700ED00E073
:100E10000400FA05024A136801331360704700BFEB
:100E2000380100204FF0E023002210B51A6102784B
:100E30000446012A1A690CBF42F0040222F004029F
:100E40001A614FF0E0224378012B13690CBF43F085
:100E5000020323F002031361FFF7CAFF03464FF0BA
:100E6000E02200210748A0FB03035B0A013B53611A
:100E70009161A378012B00D010BD136943F00103E9
:100E8000136110BDD34D6210034A116813685B1AD9
:100E90008342FBD3704700BF38010020002800F0D8
:100EA0000981F0B5844A0378044652F8235083B090
:100EB000002D00F0F280012B0CBF11201220FFF753
:100EC00019FE2378002B00F0CF80012B00F0EB807F
:100ED0001220FFF70FFE0320FFF7FEFD2378002B03
:100EE00040F0CC804FF410624FF42063ADF8002046
:100EF000ADF8043040F202336846ADF80230FFF737
:100F0000F7FC012301A8ADF80630FFF7F1FC002340
:100F1000EB602B616B61AB60AB61A3786278A17B06
:100F20001B0343EA4233E2780B43217943EAC223AD
:100F3000627943EA8123A17943EA4223E27943EAD1
:100F40000123217A43EAC213627A43EA8113A17A28
:100F500043EA4213E27A207B43EA011343EAC203E5
:100F6000617BEA6843EA800343EA41031343EB6091
:100F7000237CE27B617C1B0343EA8233A27C43EA4D
:100F8000C123E17C43EA8223227D43EA4123617D40
:100F900043EA0223A27D43EA811343EA4213E27D3E
:100FA000296902F00F0213430B432B616A69637EC8
:100FB000217E5B0243EA812394F822100B43A17E39
:100FC00043EA0123E17E43EAC113217F43EA81130F
:100FD000617F43EA4113A17F43EA0113E17F43EAC2
:100FE000C10394F8201043EA810394F8211043EAE6
:100FF000410313436B612378002B51D1FFF7E0FECF
:1010000000F0AAFA0646606A000100F0A5FA01465F
:10101000304600F0ADFB074600F046FC86B2304695
:1010200000F09EFA0146384600F0E4F94FF08341A3
:1010300000F0EAFA00F038FC00F00F0040EA061079
:1010400080B2A860238D5BBA9BB2AB61286810F0B8
:10105000080022D1EB6843F00803EB60EB6843F033
:101060000403EB6003B0F0BD0E20FFF735FD022056
:10107000FFF732FD2378002B3FF434AF012B07BF7D
:101080004FF400724FF4407340F6012240F60133F2
:10109000ADF80020ADF804302CE7012003B0F0BD1E
:1010A000FFF776FEACE71120FFF724FD0220FFF7E3
:1010B00013FD13E702207047200100200E4B53F868
:1010C0002000A8B1A1B1C3681B0713D55AB1013ADA
:1010D000D3B24A1E194403681B06FCD512F8013F1F
:1010E0008A424360F7D103685B06FCD50020704755
:1010F000012070470520704720010020022810D8E9
:10110000094B10B553F820404CB12530C0B2FFF761
:10111000D3FCE368002043F02003E36010BD01200E
:1011200010BD0120704700BF200100202DE9F047CD
:101130008CB04FF000086E464FF030094B4A4C4BD4
:10114000156893E8030005F10C040090ADF8041055
:1011500064220021204600F0D5FBAB1C06932B1D1A
:101160000793AB1D089305F10803099305F10A03E2
:10117000CDE90A353F4D0CAF0DF1180E5EF8043B7A
:10118000B3F800A0BAF1000F65D000210846D4469C
:10119000A5FB0A32D20802EB8203AAEB43033033E9
:1011A0001FFA82FA00F130020131DBB26A44BCF16D
:1011B000090FC9B202F8203CE8D8002953D08DF8B5
:1011C000083078B3431EDBB203F130026A4412F8F0
:1011D000202C8DF809202BB3831EDBB203F13002E3
:1011E0006A4412F8202C8DF80A20DBB1C31EDBB252
:1011F00003F130026A4412F8202C8DF80B208BB1D9
:10120000031FDBB203F130026A4412F8202C8DF880
:101210000C203BB1431FDBB230336B4413F8203C4E
:101220008DF80D3002AB194481F8008016F8012BBF
:101230009DF8083004F8012B33B102AA04F8013BF1
:1012400012F8013F002BF9D1BE4597D1002323703E
:101250000CB0BDE8F08716F8012B3023ADF80890EC
:1012600004F8012BE9E702A9DEE700BF3C010020FA
:1012700030190008CDCCCCCCEE280AD00A4B1A6825
:1012800092F87930591C134482F8791083F8700071
:1012900070470121044B1B68B3F87620A3F878103F
:1012A00052BAA3F87A2070473C010020012070B5A3
:1012B000204E03213368044693F870200240FFF764
:1012C00063FB01203368E11C234493F8705004440D
:1012D00005402A46C9B2FFF757FB062CF1D12A4632
:1012E0000F210020FFF750FB326892F8711092F83E
:1012F000720092F870304900800000F0040092F80B
:10130000734001F00201014303F0010392F87400FD
:101310000B43E40092F8751004F008040001234325
:1013200000F010004901034301F020010B4313803A
:1013300070BD00BF3C010020014B1860704700BF2A
:101340003C01002008B5FFF7B1FFFFF7EFFE264B89
:101350001B681A7B03F10C0152B10D33C3F1010C70
:1013600003EB0C0213F8010B92B20028F8D1D2B2B1
:101370000020FFF7A3FEFFF735FB3220FFF784FDC7
:10138000FFF73CFB3220FFF77FFDFFF72BFB3220FE
:10139000FFF77AFDFFF732FB3220FFF775FDFFF70D
:1013A00021FB3220FFF770FDFFF728FB3220FFF70B
:1013B0006BFDFFF717FB3220FFF766FDFFF71EFB03
:1013C0003220FFF761FDFFF70DFB3220FFF75CFDD8
:1013D000FFF714FB3220FFF757FDBDE8084040F649
:1013E000C410FFF751BD00BF3C01002080F0004059
:1013F00002E000BF81F0004142001FBF5FEA4103ED
:1014000092EA030F7FEA226C7FEA236C6AD04FEAEC
:101410001262D2EB1363C1BFD21841404840414031
:10142000B8BF5B42192B88BF704710F0004F40F4E3
:10143000000020F07F4018BF404211F0004F41F4FF
:10144000000121F07F4118BF494292EA030F3FD0CB
:10145000A2F1010241FA03FC10EB0C00C3F12003DE
:1014600001FA03F100F0004302D5494260EB40006D
:10147000B0F5000F13D3B0F1807F06D340084FEAD8
:10148000310102F10102FE2A51D2B1F1004F40EBCD
:10149000C25008BF20F0010040EA03007047490035
:1014A00040EB0000013A28BFB0F5000FEDD2B0FAD2
:1014B00080FCACF1080CB2EB0C0200FA0CF0AABFF5
:1014C00000EBC25052421843BCBFD0401843704793
:1014D00092F0000F81F4000106BF80F40000013299
:1014E000013BB5E74FEA41037FEA226C18BF7FEA70
:1014F000236C21D092EA030F04D092F0000F08BFB2
:101500000846704790EA010F1CBF0020704712F098
:101510007F4F04D1400028BF40F00040704712F1D7
:1015200000723CBF00F50000704700F0004343F03C
:10153000FE4040F4000070477FEA226216BF084672
:101540007FEA23630146420206BF5FEA412390EA35
:10155000010F40F4800070474FF0000304E000BF2B
:1015600010F0004348BF40425FEA000C08BF7047DC
:1015700043F0964301464FF000001CE050EA0102A0
:1015800008BF70474FF000030AE000BF50EA0102B5
:1015900008BF704711F0004302D5404261EB4101A2
:1015A0005FEA010C02BF84460146002043F0B643C7
:1015B00008BFA3F18053A3F50003BCFA8CF2083AEC
:1015C000A3EBC25310DB01FA02FC634400FA02FCF5
:1015D000C2F12002BCF1004F20FA02F243EB0200FC
:1015E00008BF20F00100704702F1200201FA02FC5E
:1015F000C2F1200250EA4C0021FA02F243EB020051
:1016000008BF20EADC7070474FF0FF0C1CEAD05294
:101610001EBF1CEAD15392EA0C0F93EA0C0F6FD055
:101620001A4480EA010C400218BF5FEA41211ED033
:101630004FF0006343EA501043EA5111A0FB01311F
:101640000CF00040B1F5000F3EBF490041EAD371F4
:101650005B0040EA010062F17F02FD2A1DD8B3F170
:10166000004F40EBC25008BF20F00100704790F0DF
:10167000000F0CF0004C08BF49024CEA502040EA31
:1016800051207F3AC2BFD2F1FF0340EAC2507047F7
:1016900040F400004FF00003013A5DDC12F1190F35
:1016A000DCBF00F000407047C2F10002410021FAA7
:1016B00002F1C2F1200200FA02FC5FEA310040F1BF
:1016C000000053EA4C0308BF20EADC70704792F038
:1016D000000F00F0004C02BF400010F4000F013A70
:1016E000F9D040EA0C0093F0000F01F0004C02BF6B
:1016F000490011F4000F013BF9D041EA0C018FE7DA
:101700000CEAD15392EA0C0F18BF93EA0C0F0AD0DF
:1017100030F0004C18BF31F0004CD8D180EA010005
:1017200000F00040704790F0000F17BF90F0004F9E
:10173000084691F0000F91F0004F14D092EA0C0F80
:1017400001D142020FD193EA0C0F03D14B0218BF13
:10175000084608D180EA010000F0004040F0FE4059
:1017600040F40000704740F0FE4040F440007047F5
:101770004FF0FF0C1CEAD0521EBF1CEAD15392EA74
:101780000C0F93EA0C0F69D0A2EB030280EA010C64
:1017900049024FEA402037D04FF0805343EA1111FD
:1017A00043EA10130CF000408B4238BF5B0042F15B
:1017B0007D024FF4000C8B4224BF5B1A40EA0C0000
:1017C000B3EB510F24BFA3EB510340EA5C00B3EB32
:1017D000910F24BFA3EB910340EA9C00B3EBD10F20
:1017E00024BFA3EBD10340EADC001B0118BF5FEA72
:1017F0001C1CE0D1FD2A3FF650AF8B4240EBC2509B
:1018000008BF20F0010070470CF0004C4CEA50205B
:101810007F32C2BFD2F1FF0340EAC250704740F4AA
:1018200000004FF00003013A37E792F0000F00F09C
:10183000004C02BF400010F4000F013AF9D040EA1A
:101840000C0093F0000F01F0004C02BF490011F4AE
:10185000000F013BF9D041EA0C0195E70CEAD153A6
:1018600092EA0C0F08D142027FF47DAF93EA0C0F8D
:101870007FF470AF084676E793EA0C0F04D14B0271
:101880003FF44CAF08466EE730F0004C18BF31F023
:10189000004CCAD130F000427FF45CAF31F000431D
:1018A0007FF43CAF5FE700BF42000ED2B2F1FE4FC3
:1018B0000BD34FF09E03B3EB126209D44FEA00231F
:1018C00043F0004323FA02F070474FF000007047E6
:1018D00012F1610F01D1420202D14FF0FF30704787
:1018E0004FF00000704700BF0A44914200F1FF33FF
:1018F00000D1704710B511F8014B914203F8014F28
:10190000F9D110BD03460244934200D1704703F859
:10191000011BF9E700080140000C014000100140E4
:101920000014014000180140001C0140002001404B
:081930005457504359530000C5
:10193800000000000000000000000000000000009F
:10194800000000000000000000000000000000008F
:10195800000000000000000000000000000000007F
:10196800000000000000000000000000000000006F
:10197800000000000000000000000000000000005F
:10198800000000000000000000000000000000004F
:10199800000000000000000000000000000000003F
:1019A80000000000000000000000FF01010101002C
:1019B800000000030405060000000000000000000D
:1019C8000000000407000000000000000000000004
:1019D80000000000000000000000000000000000FF
:1019E80000000000000000000002000101010100E9
:1019F800000000004C24014000000000040000002A
:101A08000007000300080203020D000300010100A3
:101A1800282300000100000000A24A040001000081
:101A280000000000000000000000000000000000AE
:101A3800000000000000000000000000000000009E
:101A480080250000000000000000000000000000E9
:0C1A5800003801400044004000480040FD
:040000050800018D61
:00000001FF
