:020000040800F2
:10200000101D0020D12100087F2F0008DB210008CF
:102010007D2F00086D2700089D3700080000000094
:10202000000000000000000000000000E3210008A4
:10203000612A00080000000039390008D332000886
:10204000EB210008EB210008EB210008EB21000840
:10205000EB210008EB210008EB210008EB21000830
:10206000EB210008EB210008EB210008EB21000820
:10207000EB210008EB210008EB210008EB21000810
:10208000EB210008EB210008EB210008EB21000800
:10209000EB210008EB210008EB210008EB210008F0
:1020A000EB210008EB210008EB210008EB210008E0
:1020B000EB210008EB210008EB210008EB210008D0
:1020C000EB210008EB210008EB210008EB210008C0
:1020D000EB21000885370008EB210008EB21000800
:1020E000EB210008EB210008EB21000800F002F8CA
:1020F00000F05EF80AA090E8000C82448344AAF144
:102100000107DA4501D100F053F8AFF2090EBAE841
:102110000F0013F0010F18BFFB1A43F0010318471B
:10212000C81D0000E81D00000A444FF0000C10F824
:10213000013B13F0070408BF10F8014B1D1108BF45
:1021400010F8015B641E05D010F8016B641E01F8E5
:10215000016BF9D113F0080F1EBF10F8014BAD1C35
:102160000C1B09D16D1E58BF01F801CBFAD505E053
:1021700014F8016B01F8016B6D1EF9D59142D6D3AD
:10218000704700000023002400250026103A28BFD5
:1021900078C1FBD8520728BF30C148BF0B607047D9
:1021A0001FB59DE8030000F0A9F81FBD10B510BDD4
:1021B00000F000F91146FFF7F3FF01F097FB00F084
:1021C0001EF903B4FFF7F2FF03BC00F04FF9000063
:1021D0000948804709480047FEE7FEE7FEE7FEE7BB
:1021E000FEE7FEE7FEE7FEE7FEE7FEE704480549F7
:1021F000054A064B7047000037330008ED20000801
:1022000010170020101D00201019002010190020A8
:1022100070B5064600F056F8056806F10B0020F090
:102220000704B4429CBF002070BD2B466A68BAB157
:102230001068A04210D304F1080188423CBF5068E6
:10224000586007D35168101941601168091B01607B
:1022500058601460101D70BD13465268002AE7D103
:102260002146284600F036F80028DED170BD70B552
:102270000446051F00F026F80068002C14BF4468CF
:1022800070BD002C18BFAC423CBF20466468F8D338
:1022900001680A18AA4218BF456003D12A6805469A
:1022A0001144016028684119A1421CBF6C6070BDD7
:1022B0006168696021680844286070BD7047704794
:1022C0007047000000487047B816002070477047FC
:1022D0007047704738B504460A4600206946AFF398
:1022E0000080002808BF38BD02460099204600F053
:1022F0003FF8012038BD012000F054B8F8B5AFF325
:102300000080054600200C46102000BF0646A81994
:10231000A0420DD9324669460020AFF30080070085
:1023200008BF00F03FF80098A04218BF0546C41946
:10233000FFF7C8FF05600746F01D20F007004619AB
:10234000284600F00AF8B44208BFF8BDA21B314687
:102350003868BDE8F84000F00BB800210160C0E922
:10236000011070471020704700487047B0160020D9
:10237000034640688C46002818BF88423CBF03468D
:102380004068F8D318681844884207D00CF103005D
:1023900020F00700001D411A521A0146081D0A606C
:1023A000FFF765BF10B500F039F8BDE8104000F048
:1023B0002FB870477546FFF7D7FFAE460500694650
:1023C000534620F00700854618B020B5FFF70EFFF2
:1023D000BDE820404FF000064FF000074FF0000826
:1023E0004FF0000B21F00701AC46ACE8C009ACE8A7
:1023F000C009ACE8C009ACE8C0098D46704710B50B
:102400000446AFF300802046BDE81040FFF7D9BE78
:10241000002801D000F02AB87047000010B501284C
:1024200005D0002103A000F027F8012010BD09A16C
:10243000F8E7000053494752544D454D3A204F7537
:1024400074206F662068656170206D656D6F7279AC
:10245000000000003A2048656170206D656D6F7264
:102460007920636F72727570746564000149182079
:10247000ABBEFEE72600020070B505460C460A20FA
:1024800000E06D1C00F011F835B128780028F8D173
:1024900002E0641C00F009F814B120780028F8D19B
:1024A000BDE870400A20AFF3008008B569468DF89A
:1024B00000000320ABBE08BD07480168C90702D071
:1024C0000168C90501D404207047016841F4800106
:1024D00001600020704700000824014038B5044620
:1024E00000200090032C01D9022038BD092000F003
:1024F000F5FA8DF800400321684600F025FE002023
:1025000038BD00002DE9F843040041D0E07DE8B378
:1025100010283DD8207801283AD86078012837D88B
:10252000A078012834D8E078012831D82079012812
:102530002ED8607901282BD8207E072828D800269D
:1025400035461CE0A019C079112821D8072801D8E8
:10255000002109E0092802D80121083803E00F28EA
:102560000BD802210A38C0B200958DF800108DF802
:102570000100684600F07CFC40B9761CF6B2E07DB4
:10258000B042DFD8A079FFF7A9FF00E000E010B16A
:102590000220BDE8F8837349086820F00100086054
:1025A0000868A27840EA42000860081F02682378A1
:1025B00042EA032202600A68637842EA03220A6060
:1025C0000A68E37842EAC3220A600A68237942EA89
:1025D00003520A600268637942EA43120260614A68
:1025E0002432106820F4700010601068E37D5E4EA5
:1025F00006EB03531843106000201F2307268BE0CF
:10260000062818D2574F2C37D7F8008000EB8009E6
:1026100003FA09FC28EA0C08C7F8008004EB000C58
:102620009CF80780D7F800C008FA09F848EA0C08B7
:10263000C7F8008033E00C281AD2DFF828C10CF16B
:10264000280CDCF80070A0F1060808EB880903FAF2
:1026500009F827EA0807CCF800702718DCF8008092
:10266000FF7907FA09F747EA0807CCF8007016E087
:10267000D2F80080A0F10C0707EB870703FA07FCEC
:1026800028EA0C08C2F8008004EB000C9CF807C094
:102690000CFA07FC17684CEA070CC2F800C004EB00
:1026A000000C9CF80770092F1BD8DFF8B89009F1CF
:1026B0000809D9F8008007EB470706FA07F728EA68
:1026C0000708C9F800809CF807C0277E0CEB4C0C6B
:1026D00007FA0CF7D9F800C047EA0C07C9F80070F0
:1026E00018E0DFF880C00CF1040CDCF800800A3F31
:1026F00007EB470906FA09F728EA0708CCF8008033
:1027000094F81880DCF8007008FA09F848EA07081D
:10271000CCF80080401CC0B2E77D87423FF670AF26
:10272000086840F0010008604FF47A720095009844
:10273000401C00909042FAD3086840F00100086005
:10274000086840F00400086042F2107000E030B108
:102750000A68520701D5401EF9D2002019E703206C
:1027600017E70000082401400000F0FFFEE700002A
:102770000A4D0B4C4FF4817695F87800FE2808D16D
:10278000204600F001FA3146204600F04FFA00F0F2
:10279000F7FB052000F044FEEEE7000004000020F7
:1027A00000FC000870B501F055F82D4D4FF0000405
:1027B000286890F87900C8BB2868204490F8700019
:1027C00000F00106E01CC1B23246012000F0E8FF33
:1027D000052C04D132460F21002000F0E1FF641CDB
:1027E000E4B2052CE8D9286890F8711001F00102D4
:1027F00090F8701062F35F0190F8722002F001020D
:1028000041EA820190F8732002F0010241EAC2011C
:1028100090F8742002F0010241EA021190F875204C
:1028200002F0010241EA4211018070BDFFE7286811
:10283000204490F8700000F00106E01CC1B232465E
:10284000012000F0ADFF052C04D132460F210020FD
:1028500000F0A6FF641CE4B2052CE8D9E5E700000F
:1028600068010020114E08B50024351F694628680C
:1028700000F0B4FBA8B13119641C9DF80000E4B26B
:1028800081F87000092C0CD3002403E06946286805
:1028900000F0A4FB286801F021F80128F6D1FFF729
:1028A00081FF0A2000F0BCFDE0E7000004000020EA
:1028B00010B504007ED0207806287BD860780328E5
:1028C000FBD8A078012875D8E078012872D8207943
:1028D00002286FD8607902286CD8A079012869D8BD
:1028E000E079012866D8207A012863D8607A012827
:1028F00060D8A07A01285DD8606900285AD0E068C5
:10290000002857D02069002854D0002000F0CAF8D1
:10291000207800EB80008100424801448A6822F060
:1029200001028A60217801EB810100EB81018A6854
:10293000637842EA03328A60217801EB810100EB7F
:1029400081018A68A37842EA83128A60217801EBC8
:10295000810100EB81018A68E37842EAC3128A6050
:10296000217801EB810100EB81018A68237942EA39
:1029700003228A60217801EB810100EB81018A68E2
:10298000637942EA83228A60217801EB810100EBBE
:1029900081018A68A37942EA43128A60217801EBB7
:1029A000810100EB81018A68E37942EA03128A60BF
:1029B000217800E033E001EB810100EB81018A68BE
:1029C000237A42EAC3028A60217801EB810100EB9D
:1029D00081018A68637A42EA83028A60217801EB86
:1029E000810100EB81018A68A37A42EA43028A608E
:1029F0002278616902EB820200EB8202D1602278C8
:102A0000E16802EB820200EB820211612278216907
:102A100002EB820200EB82004161002010BD012028
:102A200010BD00000000024010B5062801D90120A9
:102A300010BD0A4A00EB800102EB8101CB685BB15B
:102A4000536884000F20A04003435360886840F01F
:102A500001008860002010BD022010BD000002406F
:102A600070470000034A116813685B1A8342FBD366
:102A700070470000B400002010B503280DD20849AB
:102A800051F820404CB12530C0B200F035F8E06874
:102A900040F02000E060002010BD012010BD0000CB
:102AA000BC000020054A5369012181400B4202D13C
:102AB0005069084350610020704700000010024038
:102AC000054AD369012181400B4202D1D0690843F4
:102AD000D06100207047000000100240054A936951
:102AE000012181400B4202D190690843906100208E
:102AF00070470000001002404109890001F1E02107
:102B0000D1F8002100F01F03012098400243C1F8D2
:102B100000217047164A174990420A6802D842F0CD
:102B2000080201E022F008020A60134A904203D929
:102B30000A6842F010020A600A6822F007020A607E
:102B400001D8086810E00D4A00EB02030C4A9342DA
:102B500003D8086840F0010006E00A4B1844904290
:102B600003D8086840F002000860002070470000A9
:102B700000127A000020024000366E01FFC991FE6B
:102B8000FF356E01FF9323FD034600B5A0F1006001
:102B9000B0F5003F01D3012000BD194AD068C0073D
:102BA000FCD11069000601D500F034F8106940F03E
:102BB000020010615361106940F040001061D0685C
:102BC000C007FCD1D068400701D5042003E0D068DD
:102BD000C00608D51020D060106920F002001061F6
:102BE00000F010F8D7E7D068800601D52020D0602B
:102BF000106920F00200106100F004F8002000BD10
:102C0000002002400248016941F0800101617047E3
:102C10000020024003480249416003494160704777
:102C20002301674500200240AB89EFCD10B50D4A66
:102C30000B460446D068C007FCD1FFF7EBFF1069D4
:102C400040F0010010612380D068C007FCD1D0683B
:102C5000400701D50420D0602420D060BDE810409A
:102C6000FFF7D0BF00200240074810B5016841F0CF
:102C700010010160032000F067F80F2000F006F853
:102C800000F024F8002010BD0020024070B50D4D6A
:102C900004464FF47A712878B1FBF0F00A490968CC
:102CA000B1FBF0F000F062F848B9102C07D2002216
:102CB0002146501E00F028F800206C6070BD0120F5
:102CC00070BD0000800000208C0000200C4808B57A
:102CD000816941F001018161816901F00101009187
:102CE000C16941F08051C161C06900F0805000901D
:102CF0000448416821F0E06141F00071416008BD85
:102D00000010024000000140F0B40E4B1B680C465E
:102D1000C3F30223C3F10705042D00D90425191DAF
:102D2000072901D2002300E0DB1E012606FA05F187
:102D3000491E214099409E40761E16403143F0BC0A
:102D400000F052BD0CED00E0064900F007020868F3
:102D50004FF6FF03184040EA0220034A1043086080
:102D6000704700000CED00E00000FA0510B5401EB1
:102D7000B0F1807F01D3012010BD4FF0E0246061ED
:102D80000F21601700F030FD0020A06107202061B6
:102D9000002010BD01490860704700006801002054
:102DA000F0B530A18CB0D1E90001304ACDE908017D
:102DB000002511682C4601F10C004D80642301466A
:102DC00002E000BF01F8014B5B1E9BB2FAD2116812
:102DD000EE468A1C00920A1D01928A1D0292921CE4
:102DE0000392921CCDE9042100220AAC5EF8221065
:102DF00006AF0B88002183B15FF00A06B3FBF6FC37
:102E000006FB1C3CB3FBF6F30CF1300C04F801C0DC
:102E1000491CC9B2002BF1D10BE030218DF81810FC
:102E20008DF8195008E0491EC9B2665CFE545B1C5F
:102E3000DBB20029F7D1FD543946062A07D208AB88
:102E40009B5C00F8013B02E000F8013B491C0B7859
:102E5000002BF9D1521CD2B2062AC7D305700CB090
:102E6000F0BD000054575043595300006801002042
:102E700070B504000BD02078062808D861780F2997
:102E800005D8A178032902D8E178032901D90220C5
:102E900070BD184951F82050801CC0B2FFF71EFECB
:102EA00060780F2108280FD22A68800081408A4369
:102EB0002A60E078A17840EA810061788900884042
:102EC00029680843286012E00F2810D880002038B5
:102ED0008140686888436860E078A17840EA8100B2
:102EE000617889002039884069680843686000205B
:102EF00070BD0000900000207CB5094D03242868B7
:102F000000908DF801406846FFF7B2FF68680190B5
:102F100001A8FFF7ADFF641CE4B2072CEFD97CBD1C
:102F2000E03E0008144910B548608831001D086172
:102F3000A1F1780000F0A4FCFFF7DEFF0E48FFF7D8
:102F400097FF0D48083000F0CBF90B484C30FFF7E5
:102F5000D9FA09488830FFF7ABFC0020FFF764FD81
:102F6000FFF7AAFA0448183000F0FAFABDE810405A
:102F70000020FFF781BD0000C8000020FEE7FEE74B
:102F800003480168034A01F4E0611143016070479E
:102F90000CED00E00400FA0501220D21022000F0F2
:102FA000FFBB00220D21022000F0FABB70B50546E0
:102FB0000C20FFF72DF9041E0AD0A800FFF728F90E
:102FC000206030B1A5800020E08020816081204613
:102FD00070BD2046FFF74BF9002070BD70B50D465F
:102FE000040017D06089A8B100F0AEF9E18820682C
:102FF00010F821002870E088A188401CB0FBF1F295
:1030000001FB1200E0806089401E608100F09EF9A3
:10301000012070BD002070BD10B518B142898388B1
:103020009A4201D3002010BD0389026842F82310A0
:1030300001898288491CB1FBF2F302FB1311018163
:103040004189491C418100F083FA012010BD000034
:1030500078B50546344885422DD8344C2068400C5C
:10306000C00704D0324E606840F4803007E020682A
:103070004008C0071FD02F4E606820F48030606089
:10308000002000902C48854202D904208DF80100D0
:103090002A48854202D902208DF8000001216846A5
:1030A00000F052F80321684600F04EF8B5FBF6F048
:1030B000811E0F2901D3022078BD616821F47011AF
:1030C000616061681E4A02EB8040014361602068D4
:1030D00040F08070206042F21071084600E008B3B2
:1030E0002268920101D4401EF9D2606820F00300EA
:1030F0006060606840F00200606000E091B160686C
:10310000C0F38100022801D0491EF7D20D489DF876
:10311000011001709DF8021041709DF8031081703C
:10312000002078BD032078BD00A24A0400100240B0
:1031300000127A0000093D0000512502001BB70073
:103140000000F8FFAC00002010B5B0B3234A244BB8
:1031500031B1012913D0022920D003293CD12DE01F
:10316000C1780F2938D8516821F0F00151605168B9
:10317000C47841EA04115160C07898702AE041781F
:10318000072929D8516821F4E061516051684478D9
:1031900041EA04215160407818701BE081780729CA
:1031A0001AD8516821F4605151605168847841EA1D
:1031B000C4215160807858700CE00DE0017803293B
:1031C0000AD8516821F4404151605168007841EAC1
:1031D00080305060002010BD022010BD0010024061
:1031E000AC00002010B50E4C80B1012801D00220A7
:1031F00010BD0520FFF772FC206840F4803020608D
:103200002068400CC007FBD0002010BD206840F0B3
:103210000100206020684008C007FBD0F4E70000F0
:103220000010024010B5FFF7BBFD0A4802680C32DF
:103230001146002001E0401C80B212F8013B002B37
:10324000F9D1C2B2002000F063F9BDE8104000F0EF
:103250000BB80000680100204FF47A74FFF7E2FF1A
:10326000204600F0DDF8F9E710B5FFF79AFE3220AE
:10327000FFF7F8FBFFF790FE3220FFF7F3FBFFF7B5
:1032800090FE3220FFF7EEFBFFF786FE3220FFF7BD
:10329000E9FBFFF786FE3220FFF7E4FBFFF77CFE39
:1032A0003220FFF7DFFBFFF77CFE3220FFF7DAFB6F
:1032B000FFF772FE3220FFF7D5FBFFF772FE3220D8
:1032C000FFF7D0FBFFF768FEBDE810403220FFF7A4
:1032D000C9BB10B500F030F8BDE8104000F038B9B7
:1032E00070B54FF0E02400260546266100780128DD
:1032F00020691AD020F00400206168780128206934
:1033000016D020F00200206100F09EFA4FF4FA512E
:10331000B0FBF1F0401E6061A661A878012803D1DE
:10332000206940F00100206170BD40F00400E3E737
:1033300040F00200E7E7704702480168491C01605D
:1033400070470000B400002072B6704762B6704744
:10335000114A0021114811700123537080F8443044
:1033600080F858121B06C0F84812C0E990310C4B87
:10337000C0F83C320B4BC0E98D13C0F83012C0F8D6
:103380002C12C0F82812C0F8241200F5097101644B
:10339000022090707047000070010020740100202E
:1033A000053500085534000830B51A4B0122972422
:1033B000544303EB840494F844402CB1521CD2B221
:1033C000092AF4D3002030BD97256A43012403EB7A
:1033D0008202230682F84440906482F85812002149
:1033E000C2F84812C2F84412C2E98F030A48C2E97F
:1033F0008D10C2F83012C2F82C12C2F82812C2F88E
:103400002412064902F5097010648878401C8870FF
:10341000012030BD740100205534000870010020E7
:103420000949972209785143084A02EB810191F832
:103430004420022A06D0022281F84420044A12685D
:10344000C1E9942000F084B87001002074010020CC
:10345000B400002007480078002809D000219722F6
:103460005043054A02EB800080F8441000F070B829
:10347000704700007001002074010020034897216C
:1034800000784843024901EB80007047700100203A
:103490007401002070B500230A21174C01209722E7
:1034A000424304EB820292F84450012D0DD0022DCC
:1034B00011D1124ED2F850523668751BD2F85462B0
:1034C000B54208D3012582F8445092F858229A4216
:1034D00001D313460146401CC0B20928DFD3084877
:1034E0000A2905D001709720414304EB810070BD8B
:1034F00000210170004870BD74010020B40000205C
:103500007001002000BF0120FFF78AFFFAE70000EA
:103510000E4B10B553F8200028B121B1C3681B072A
:1035200003D4052010BD012010BD002306E004686F
:103530002406FCD5CC5C44605B1CDBB29342F6D322
:1035400001684906FCD5002010BD0000BC00002029
:103550000248016841F080510160704704ED00E0CD
:10356000FEB504007ED02078854951F82050002D0A
:1035700079D0012878D01220FFF7A2FA207800280D
:1035800073D0012872D01220FFF79AFA5FF003007F
:10359000FFF7A4FA23780A2200260220032101273C
:1035A000002B7DD0012B7CD08DF800708DF8012090
:1035B0008DF808705FF00B028DF809208DF803106C
:1035C0008DF802006846FFF753FC8DF80B608DF80C
:1035D0000A7002A8FFF74CFCEE602E616E61AE60CF
:1035E000AE616078A178400340EA0130E17840EABA
:1035F000C120217940EA8120617940EA4120A17906
:1036000040EA0120E17940EAC110217A40EA8110C4
:10361000617A40EA4110A17A40EA0110E17A40EA79
:10362000C100217B40EA8100617B40EA4100A17B2F
:103630000843E9680843E860E07B217C800340EAB6
:103640000130617C40EAC120A17C40EA8120E17C1C
:1036500040EA4120217D40EA0120617D40EA81105D
:10366000A17D04E060E05DE060E061E065E040EAEB
:103670004110E17D01F00F010843296908432861E9
:10368000207E617E800240EA4120A17E40EA012046
:10369000E17E40EAC110217F40EA8110617F01E0B4
:1036A00050E057E040EA4110A17F40EA0110E17F7D
:1036B00040EAC10094F8201040EA810094F82110FB
:1036C00040EA410094F822100843696908436861A0
:1036D000207888B300F098F80746606A000100F08F
:1036E000B1FA0646384600F0ADFA314600F0C8F9A6
:1036F000074600F087FA86B2304600F0A3FA394652
:1037000000F0FEFA042100F0ACFB00F07BFAC0B23E
:1037100066F31F1080B2A860208D40BAA8612868A7
:10372000000723D50120FEBD0220FEBD112023E7A6
:103730000E20FFF7D3F903E015E01120FFF7C0F9E1
:10374000022025E78DF8006009238DF801308DF8FF
:10375000086031E78DF800608DF808608DF8010091
:103760008DF809102AE700F05FF8B5E7E86840F047
:103770000800E860E86840F00400E8600020FEBD52
:10378000BC00002003480068C1B203480068FFF78E
:1037900043BC00000438014000000020FEE70000A8
:1037A00010B5062804D80F2902D81AB1012A01D071
:1037B000022010BD0B4B53F820008B00082901D2CA
:1037C000046801E04468203BDC4014F0030F05D09E
:1037D00001238B4022B10361002010BD032010BDE6
:1037E0004361F9E7900000200907090E002804DB77
:1037F00000F1E02080F80014704700F00F0000F1A5
:10380000E02080F8141D704706490878042801D28A
:10381000012202E00222001F82404968D0B2B1FBBF
:10382000F0F07047AC00002006494878042801D227
:10383000012202E00222001F82404968D0B2B1FB9F
:10384000F0F07047AC00002001484068704700006D
:10385000AC0000200348006810F8761FC170417862
:10386000817070476801002010B50448FFF75AFBCB
:10387000BDE810400148FFF78DBA000004000020A9
:1038800010B5040004D06068FFF744F970B901E096
:10389000022010BD2078FFF7A5FC38B96068FFF75B
:1038A000D7FB0C4A616800285160F2D00A480168D1
:1038B00041F00101016042F2107102685208D20722
:1038C00001D1491EF9D2416821F003014160032072
:1038D00010BD0000AC0000200010024018B140896B
:1038E00008B100207047012070470000FFF7BCF9C5
:1038F000FFF72EFD19210A48FFF756FD052109485B
:10390000FFF752FD03210848FFF74EFD0A21074843
:10391000FFF74AFD0920FFF749FB05490860FEE76C
:103920006938000865280008593200087127000826
:103930000000002000000000FFF7A0FD1A4A1268F6
:10394000012A25D0046245628662C762C0F83080D1
:10395000C0F83490C0F838A0C0F83CB0EFF309814B
:103960000164FFF797FD046A456A866AC76AD0F862
:103970003080D0F83490D0F838A0D0F83CB0016C4A
:1039800081F30988094B9842FFD06FF0020E70470F
:103990004FF0020C8CF31488026C82F30988024900
:1039A0004FF000020A60CDE76C0100207401002096
:1039B00090EA010F48BF81F0004100F1B281421A44
:1039C0003CBF801A89184FEAD0524FF07F4C1CEA56
:1039D000410FA2EBD15318BF9CEA026F00F03B806D
:1039E0004FF0004C4CEA00204CEA012121FA03FC84
:1039F00010EB0C0C1ED202F1FF325FEA1C2040EBF0
:103A0000C25038BF70471CF07F0F4FEA400C18BF00
:103A1000BCF17F4F38BF7047C3F12003994008BF06
:103A200020F00100BCF17F4F38BF7047A0F1C040CB
:103A300000F061B94FEA3C00000A40EBC25028BFD9
:103A40001CF0FF0F4FEA400CE6D018BFBCF17F4FCF
:103A500038BF7047EAE79CEA026F05D010EA5C0FB6
:103A600008BF00F00040704710B500F0FEF800BF3E
:103A700064FBBE3E014800F0C2B900BF0000C07F39
:103A80004FF47F0C1CEAD0121EBF1CEAD11392EA3D
:103A90000C0F93EA0C0F00F0858090EA010F48BFED
:103AA00042F4807240F4000C41F400002CF07F419D
:103AB00020F07F4000B58142A2EB03020FF2081C08
:103AC000ACEB504EC0F100009EF800E04FEA4E0E05
:103AD00000FB0EFC38BF49004FEA2C1C02F5FA022D
:103AE0000CFB0EF34FEACE1E4FEA112C4FEAC12118
:103AF0000EEB635E42EB22420EFB0CFC4FEA1C53C2
:103B000000FB03114FEA112C4FEA01310EFB0CFCB4
:103B10004FEADC4C00FB0C11C14228BF09184CEBEA
:103B200003335DF804EB10EB410143EBC250B2F5F7
:103B30007C0F38BF704729D512F0F00F1CBF00F181
:103B4000C04000F0004070470081828384858687F2
:103B500088898B8C8D8E8F919293959697999A9C4C
:103B60009D9FA0A2A3A5A7A8AAACAEB0B2B3B5B7BB
:103B7000B9BCBEC0C2C5C7C9CCCED1D4D7D9DCDF91
:103B8000E2E6E9ECF0F3F7FAFE0000004FEA400C41
:103B90000CF1807CBCF17E4F28BF7047B0F1C04073
:103BA00000F0A9B890EA010F0CEAD11348BF42F423
:103BB0008072624538BF634507D213F47F0F16D079
:103BC00080EA010000F00040704710B500F04DF8A9
:103BD000097EFC3E00F005B880EA010000F00040DC
:103BE000704780EA010000F0004000F084B812F451
:103BF0007F0F04BF0248704780EA010000F07BB8E5
:103C00000000C07FC10DD1F19E0206DB4FEA002308
:103C100043F0004323FA02F07047004207D54FEA11
:103C20004001B1F1FE4F02D24FF00000704710B5D5
:103C300000F01BF849922480002070476FEA2000B2
:103C400070470000B0FA80F310FA03F2C3F19D034D
:103C50000AD0D90501EB1220530638BF704700F196
:103C6000010008BF20F0010070470EF1020E2EF097
:103C7000030E5EF8044B244204D44FEA4102B2F131
:103C80007F4F11D84FEA4003B3F17F4F0CD80ED1CC
:103C90004FEAD07CB2F17F4F0CEB4C0C0CF1020CD4
:103CA00008BF4CEBD17C04E04FF0080C01E04FEA78
:103CB000D17C0CEB4C0324FA03F404F00704B4F1B8
:103CC000040C06D20EEB840CBDE810404CF0010C45
:103CD0006047DFE80CF0070802024FF00040A0F553
:103CE000800010BD0846420018BFD2F1807288BF24
:103CF00000F0004010BDFF2141EAD050C0057047E0
:103D000080F0004090EA010F7FF559AE81F000414C
:103D100000F007B890EA010F48BF81F000413FF57D
:103D20004EAE421A04D882F00042A0EB02001144C9
:103D30004FEAD0524FF07F4C1CEA410FA2EBD15317
:103D400018BF9CEA026F4AD04FF0004C4CEA0020AA
:103D50004CEA012121FA03FCB0EB0C0C0FD412F059
:103D6000FE0F36D05FEA4C001DD5001240EBC2506A
:103D700038BF70471CF03F0F18BF70470BE0A2F12F
:103D800001025FEA1C2040EBC25038BF70471CF0B4
:103D90007F0F18BF7047C3F12003994014BF401E26
:103DA00020F00100704780084FEA122308BF7047D7
:103DB000B0FA80FCA2EB0C02CCF1280C60FA0CF0FB
:103DC00093EA122F04BF00EBC25070474FEAC37052
:103DD0007047130A5FEADC1008BF7047F6E79CEAF9
:103DE000026F04D010EA5C0F08BF0020704710B5C6
:103DF000FFF73BFF40DFF63E81F0004070470CF0DC
:103E00000F03092B08BF082000F051800A2B0BD0AC
:103E1000082B18BF704708BF1CF0400F0AD04FF0A6
:103E200000004FF0000170471CF0400F18BF4FF02A
:103E3000004070471CF0100F08D020F0704300F0D5
:103E40007F4242EAD3014FEA4370704700F060407E
:103E500021F07F4242EA000201F07F4040EA7270A6
:103E600070474FF0FF0212EAD0521CBF92F0FF03DE
:103E70008B42C2BFD14200EBC1507047002A0AD02A
:103E8000002B0BD0002900F00040A4BF40F0FE4002
:103E900040F40000704700F00040704743024FF0CC
:103EA0000B0C18BF4CF0806C7FF4E4AD70471CF431
:103EB000801F11D01CF4E02F03D06FEACC314900F1
:103EC00070474FF04050EFF3008222F0704242EA18
:103ED000000282F3008870474FF000007047000036
:103EE00001000003000F0003083F0008000000204D
:103EF0007401000028210008643F000874010020BC
:103F00009C1B000084210008017C32FF32018210DA
:103F100023127A140801401A0C041A10041A14040B
:103F20001A18041A1C041A200401101A3814124416
:103F3000124012481440020D52032A0152495811EE
:103F40004CA24A0409011EE380254A0144C503042A
:103F50000506032404072A023F49754B4C24B46A22
:043F60000458710090
:04000005080020EDE2
:00000001FF
