:020000040800F2
:1000000000500020950100089101000891010008AE
:100010009101000891010008910100080000000012
:100020000000000000000000000000009101000836
:1000300091010008000000009101000891010008F2
:100040009101000891010008910100089101000848
:100050009101000891010008910100089101000838
:100060009101000891010008910100089101000828
:100070009101000891010008910100089101000818
:100080009101000891010008910100089101000808
:1000900091010008910100089101000891010008F8
:1000A00091010008910100089101000891010008E8
:1000B00091010008910100089101000891010008D8
:1000C00091010008910100089101000891010008C8
:1000D0009101000831010008910100089101000818
:1000E00091010008910100089101000891010008A8
:1000F0009101000891010008910100089101000898
:100100009101000891010008910100089101000887
:100110009101000891010008910100089101000877
:100120009101000891010008910100089101000867
:10013000024B03485B68837700F030BB0038014016
:100140008401002080B50E4800F054F80C4E0D4C90
:100150000D4D0E4F09E063782BB996F83930012B1D
:100160001CBF0123337700F069F82378013B012B92
:10017000F9D82B680133EED13B680133EBD1F2E7BC
:100180008401002000FC0008009000080020000806
:10019000FEE700BF0F4A104808B5121A02D00F49F7
:1001A00001F088F80E4B0F4AD21A04D018460E49B7
:1001B00001F080F803464FF0E0210C4A0C48C1F8EA
:1001C000083D121A02D0002101F082F8BDE8084073
:1001D000FFF7B8BF8401002030010020FC120008A6
:1001E000000000203001002000000008DC01002099
:1001F00084010020024608B50B4B0C481A6000F041
:10020000D7FB0B4800F088FC0A4800F0ADFC00204A
:1002100000F0BAFD084800F077F9BDE80840002278
:100220000D21022000F0BCB9C00100203C010020DB
:100230003001002044010020380100202DE9F04168
:10024000344C2068437F2BBB037F012B01D0BDE8DA
:10025000F081314E3578012D2AD0022DF7D1236857
:1002600093F83930012B3DD04FF0E02300222B4C86
:10027000266865681A619A615A6100F045FC00F0D1
:100280000FFC86F30888204600F038FC2B46BDE8BA
:10029000F041184700F0CAF9002223680D215A776F
:1002A000022000F0ABF90123206880F83930CBE759
:1002B00090F83950012D21D04FF0E0230022184D45
:1002C0002F686E681A619A615A6100F01DFC00F097
:1002D000E7FB87F30888284600F010FCB0470E4B78
:1002E0001D78BAE70A210E4800F0A2F80A4800F08B
:1002F0005DF82946084800F0DDF8B5E70A2107480F
:1003000000F096F8304600F051F82946304600F0EB
:10031000D1F8D1E7C001002000FC000800900008DF
:10032000002000081C4B10B498420ED81B4A1368DA
:1003300043F008031360194B1A6822F007021A6091
:100340001A681A60002010BC7047144B144C1A68CD
:10035000A04222F008021A60EDD91968114A41F052
:10036000100119601968024421F00701A2421960C6
:1003700006D21A68002042F0010210BC1A607047D1
:10038000094A0244A242DDD21A68002042F0020269
:1003900010BC1A60704700BF00127A0000200240B3
:1003A00000366E01FFC991FEFF9323FD00F17843F3
:1003B000B3F5003F32D21B4AD368DB07FCD4136984
:1003C000190622D4174B1A6942F002021A615861C9
:1003D0001A6942F040021A61DA68D207FCD4DA687E
:1003E000500717D4DA68D1061AD4DA6800209206CA
:1003F00044BF2022DA600B4B1A6922F002021A6114
:100400001A6942F080021A6170470749074B516030
:100410005360D7E704220120DA60EDE7012070473E
:100420001022F8E70020024023016745AB89EFCD99
:1004300069B170B504460E46002520460135FFF728
:10044000B5FFB54204F58064F7D1002070BD0020EF
:10045000704700BF10B4144AD368DC07FCD4134CB7
:10046000134B5460536013690F4C43F00103136145
:100470000160E368D807FCD4E368590744BF04234C
:10048000E360094B10BCDA68920644BF2022DA60B0
:100490002422054BDA601A6922F001021A611A69F6
:1004A00042F080021A617047002002402301674534
:1004B000AB89EFCD10B4114AD368DC07FCD4104CE3
:1004C000104B5460536013690C4C43F001031361EB
:1004D0000180E368DA07FCD4E36824225B0744BFA9
:1004E0000423E360054B10BCDA601A6922F00102B4
:1004F0001A611A6942F080021A61704700200240B6
:1005000023016745AB89EFCD002842D038B5037889
:100510000446062B28D842780F2A25D88278032A49
:1005200022D8C278032A1FD8981C1C4AC0B252F89D
:10053000235000F091F96378072B17D90F2B2AD895
:100540000F21083B6A689B00994022EA01026A6019
:1005500094F802C0E278696842EA8C0202FA03F376
:100560000B4300206B6038BD022038BD0F212A6884
:100570009B00994022EA01022A6094F802C0E278C6
:10058000296842EA8C0202FA03F30B4300202B6035
:1005900038BD02207047002038BD00BFE0120008BF
:1005A000062817D80F2915D8012A13D8124B072966
:1005B00010B453F820400FD823688800C34003F0DC
:1005C0000303BBB101237AB1002003FA01F12161D9
:1005D00010BC7047022070476368A1F108008000DA
:1005E000C34003F00303ECE703FA01F11046616135
:1005F00010BC70470320EBE7E0120008062811D872
:10060000094B012253F82030D868C84010F001008F
:1006100003D102FA01F11961704702FA01F10020D9
:100620005961704702207047E01200082DE9F0413F
:1006300090F823400546012C047110D0042C00F0E2
:1006400099807CB1836929786A88294491F82400CB
:10065000504942EA034368750B60BDE8F081836945
:100660000477F0E7B0F82120037852BA96B24280BE
:10067000002B00F084805A1E022A00F1200040F274
:1006800087806A6AC5F805209A08012A0DD0A96AF0
:10069000022AC5F8091008D0032AE96A18BF2A6B94
:1006A000C5F80D1018BFC5F8112033F0FC0103F098
:1006B000FC0215D0811891F804C0511CC9B2AF18C2
:1006C000994287F805C00BD2471802323F79D2B25F
:1006D00029449A424F7103D2104401792A4451713E
:1006E000A869EA1846EA004092F82420294E00271B
:1006F000DFF8A4806A75306005E02B780434E4B23A
:10070000A342AAD930689C42BCBF2A19517904F18E
:100710000102A8BF0021C8F80070B8BFC8F80010D7
:10072000934205DD2A44527941EA0221C8F80010BB
:10073000A21C934205DD2A44527941EA0241C8F8DD
:100740000010E21C934205DD2A44537941EA03611B
:10075000C8F800102044FFF77DFE002CCDD1D8F85A
:1007600000103068FFF776FE2B78042B7FF675AF0C
:100770000424C7E7838C5BBA9BB2836163E780691B
:1007800095F82420034B46EA00406A75186064E738
:1007900022468FE7C4010020C801002070B4234C1A
:1007A00023788BB9827FAB2A23D02149214A0B6061
:1007B0001370036243628362C3620363436380F81E
:1007C0003830C37770BC704790F82020C37F111D6C
:1007D0009942027005DA012200234277C37770BC88
:1007E0007047827F591C0344C17783F8202070BC76
:1007F0007047104E0E4D31788A40083131702968AB
:100800000A43B2F1AB3F2A60DCD1012203624362AA
:100810008362C3620363436380F83830C377227016
:100820000D2170BC0220FFF7BBBE00BFD00100202D
:10083000CC010020D1010020012243099B0003F1DB
:10084000E023D3F8001100F01F0002FA00F0084383
:10085000C3F80001704700BF0123054A03FA00F006
:100860009169014202D19369184390610020704759
:10087000001002400123054A03FA00F0D169014249
:1008800002D1D3691843D0610020704700100240A4
:100890003E4B984277D83E4B1A6892035BD41A6855
:1008A000910770D55A683B4922F480325A603A4B1E
:1008B00010B5984258D8394B98424FF000035ED893
:1008C0009C469E46B0FBF1F03149354C4A680238EF
:1008D00022F4E0624A604A680E2843EA02034B6051
:1008E00084F800C04A6822F440424A604B6843EAF8
:1008F0000E034B603FD84B6823F470134B604B687A
:1009000043EA804048600A6842F2107342F0807205
:100910000A6001E0013B30D00A689201FAD54B68C9
:1009200042F2107223F003034B604B6843F0020362
:100930004B60174901E0013A1FD04B68C3F38103B4
:10094000022BF8D100231749174A0B701370184671
:1009500084F800C010BD5A68144942F480325A60CD
:100960000D4B10B59842A6D94FF480634FF0040C9C
:100970004FF4004EA6E7022010BD032010BD4FF437
:10098000004E9C469EE70220704700BF00A24A042A
:100990000010024000093D0000512502001BB70075
:1009A000D9010020DA010020D801002000127A00CD
:1009B00000283FD010B504464068FFF7B3FCE0B90B
:1009C0002378012B19D8002B2BD01B4B9A6990064A
:1009D00003D49A6942F020029A61174A136843F4DB
:1009E0008033136013689903FCD56068FFF750FFEC
:1009F000124B62681A6000B910BD0F4942F21173C0
:100A00000A6842F001020A6001E0013B02D00A6874
:100A10009207FAD5084A0320536823F00303536072
:100A200010BD054A136843F00103136013689B0768
:100A3000FCD5DAE70220704700100240D401002004
:100A4000094B1878032808D90223084A0438834040
:100A50001068DBB2B0FBF3F070470123034A106863
:100A6000B0FBF3F0704700BFD9010020D401002093
:100A7000094B1878032808D90223084A0438834010
:100A80001068DBB2B0FBF3F070470123034A106833
:100A9000B0FBF3F0704700BFDA010020D401002062
:100AA0000023104AF0B45360136823F0807323F4DA
:100AB00080331360136843F00103136013689B07CE
:100AC000FCD5002014270849084B094D094E0A4C53
:100AD000D06190615761087018702E602070F0BC72
:100AE000704700BF00100240DA010020D80100204A
:100AF000D401002000127A00D9010020014B986037
:100B0000704700BF00ED00E0024A536A23F00B0378
:100B10005362704700ED00E04FF0E02300221A61BD
:100B200002780021012A1A690CBF42F0040222F067
:100B300004021A614FF0E0224378012B13690CBFC5
:100B400043F0020323F0020313614FF0E0224368F5
:100B5000013B536191618378012B03D1136943F009
:100B600001031361704700BF002800F00981F0B550
:100B7000844A0378044652F8235083B0002D00F0D5
:100B8000F280012B0CBF11201220FFF773FE237897
:100B9000002B00F0CF80012B00F0EB801220FFF73C
:100BA00069FE0320FFF758FE2378002B40F0CC802D
:100BB0004FF410624FF42063ADF80020ADF804301C
:100BC00040F202336846ADF80230FFF79DFC012386
:100BD00001A8ADF80630FFF797FC0023EB602B610E
:100BE0006B61AB60AB61A3786278A17B1B0343EAC6
:100BF0004233E2780B43217943EAC223627943EA24
:100C00008123A17943EA4223E27943EA0123217A4D
:100C100043EAC213627A43EA8113A17A43EA421398
:100C2000E27A207B43EA011343EAC203617BEA686C
:100C300043EA800343EA41031343EB60237CE27BF6
:100C4000617C1B0343EA8233A27C43EAC123E17C3B
:100C500043EA8223227D43EA4123617D43EA022362
:100C6000A27D43EA811343EA4213E27D296902F03F
:100C70000F0213430B432B616A69637E217E5B0283
:100C800043EA812394F822100B43A17E43EA012317
:100C9000E17E43EAC113217F43EA8113617F43EA86
:100CA0004113A17F43EA0113E17F43EAC10394F8B2
:100CB000201043EA810394F8211043EA41031343CF
:100CC0006B612378002B51D1FFF7D2FE00F02AF997
:100CD0000646606A000100F025F90146304600F042
:100CE0002DFA074600F0C6FA86B2304600F01EF92B
:100CF0000146384600F064F84FF0834100F06AF98D
:100D000000F0B8FA00F00F0040EA061080B2A860C8
:100D1000238D5BBA9BB2AB61286810F0080022D12A
:100D2000EB6843F00803EB60EB6843F00403EB600F
:100D300003B0F0BD0E20FFF78FFD0220FFF78CFD02
:100D40002378002B3FF434AF012B07BF4FF4007220
:100D50004FF4407340F6012240F60133ADF8002015
:100D6000ADF804302CE7012003B0F0BDFFF768FEBA
:100D7000ACE71120FFF77EFD0220FFF76DFD13E7C2
:100D80000220704778010020022810D8094B10B5C6
:100D900053F820404CB12530C0B2FFF74DFDE36859
:100DA000002043F02003E36010BD012010BD0120AE
:100DB000704700BF7801002080F0004002E000BFD3
:100DC00081F0004142001FBF5FEA410392EA030F36
:100DD0007FEA226C7FEA236C6AD04FEA1262D2EB80
:100DE0001363C1BFD218414048404140B8BF5B4285
:100DF000192B88BF704710F0004F40F4000020F01E
:100E00007F4018BF404211F0004F41F4000121F033
:100E10007F4118BF494292EA030F3FD0A2F101027D
:100E200041FA03FC10EB0C00C3F1200301FA03F1BB
:100E300000F0004302D5494260EB4000B0F5000FDE
:100E400013D3B0F1807F06D340084FEA310102F19D
:100E50000102FE2A51D2B1F1004F40EBC25008BF4F
:100E600020F0010040EA03007047490040EB000019
:100E7000013A28BFB0F5000FEDD2B0FA80FCACF11A
:100E8000080CB2EB0C0200FA0CF0AABF00EBC25047
:100E900052421843BCBFD0401843704792F0000F35
:100EA00081F4000106BF80F400000132013BB5E788
:100EB0004FEA41037FEA226C18BF7FEA236C21D0FE
:100EC00092EA030F04D092F0000F08BF0846704763
:100ED00090EA010F1CBF0020704712F07F4F04D131
:100EE000400028BF40F00040704712F100723CBF44
:100EF00000F50000704700F0004343F0FE4040F46E
:100F0000000070477FEA226216BF08467FEA23632B
:100F10000146420206BF5FEA412390EA010F40F416
:100F2000800070474FF0000304E000BF10F0004362
:100F300048BF40425FEA000C08BF704743F0964349
:100F400001464FF000001CE050EA010208BF704764
:100F50004FF000030AE000BF50EA010208BF7047EB
:100F600011F0004302D5404261EB41015FEA010C00
:100F700002BF84460146002043F0B64308BFA3F1F8
:100F80008053A3F50003BCFA8CF2083AA3EBC253DA
:100F900010DB01FA02FC634400FA02FCC2F12002F9
:100FA000BCF1004F20FA02F243EB020008BF20F030
:100FB0000100704702F1200201FA02FCC2F1200296
:100FC00050EA4C0021FA02F243EB020008BF20EA8B
:100FD000DC7070474FF0FF0C1CEAD0521EBF1CEAB9
:100FE000D15392EA0C0F93EA0C0F6FD01A4480EAA7
:100FF000010C400218BF5FEA41211ED04FF0006390
:1010000043EA501043EA5111A0FB01310CF00040BB
:10101000B1F5000F3EBF490041EAD3715B0040EAE1
:10102000010062F17F02FD2A1DD8B3F1004F40EBB1
:10103000C25008BF20F00100704790F0000F0CF084
:10104000004C08BF49024CEA502040EA51207F3A48
:10105000C2BFD2F1FF0340EAC250704740F4000023
:101060004FF00003013A5DDC12F1190FDCBF00F014
:1010700000407047C2F10002410021FA02F1C2F1C2
:10108000200200FA02FC5FEA310040F1000053EA5E
:101090004C0308BF20EADC70704792F0000F00F0AC
:1010A000004C02BF400010F4000F013AF9D040EAB2
:1010B0000C0093F0000F01F0004C02BF490011F446
:1010C000000F013BF9D041EA0C018FE70CEAD15344
:1010D00092EA0C0F18BF93EA0C0F0AD030F0004CC4
:1010E00018BF31F0004CD8D180EA010000F0004078
:1010F000704790F0000F17BF90F0004F084691F036
:10110000000F91F0004F14D092EA0C0F01D142026F
:101110000FD193EA0C0F03D14B0218BF084608D138
:1011200080EA010000F0004040F0FE4040F4000082
:10113000704740F0FE4040F4400070474FF0FF0C15
:101140001CEAD0521EBF1CEAD15392EA0C0F93EA5C
:101150000C0F69D0A2EB030280EA010C49024FEAAE
:10116000402037D04FF0805343EA111143EA101367
:101170000CF000408B4238BF5B0042F17D024FF41F
:10118000000C8B4224BF5B1A40EA0C00B3EB510FFA
:1011900024BFA3EB510340EA5C00B3EB910F24BFE3
:1011A000A3EB910340EA9C00B3EBD10F24BFA3EB68
:1011B000D10340EADC001B0118BF5FEA1C1CE0D130
:1011C000FD2A3FF650AF8B4240EBC25008BF20F0E3
:1011D000010070470CF0004C4CEA50207F32C2BF37
:1011E000D2F1FF0340EAC250704740F400004FF0D4
:1011F0000003013A37E792F0000F00F0004C02BF05
:10120000400010F4000F013AF9D040EA0C0093F0CE
:10121000000F01F0004C02BF490011F4000F013B28
:10122000F9D041EA0C0195E70CEAD15392EA0C0F90
:1012300008D142027FF47DAF93EA0C0F7FF470AFC8
:10124000084676E793EA0C0F04D14B023FF44CAF0B
:1012500008466EE730F0004C18BF31F0004CCAD1A0
:1012600030F000427FF45CAF31F000437FF43CAFDC
:101270005FE700BF42000ED2B2F1FE4F0BD34FF03A
:101280009E03B3EB126209D44FEA002343F00043FC
:1012900023FA02F070474FF00000704712F1610F1F
:1012A00001D1420202D14FF0FF3070474FF00000F1
:1012B000704700BF0A44914200F1FF3300D17047EC
:1012C00010B511F8014B914203F8014FF9D110BD4F
:1012D00003460244934200D1704703F8011BF9E72B
:1012E00000080140000C01400010014000140140C2
:0C12F00000180140001C014000200140DB
:1012FC000000010000000000020D000301000000CE
:10130C0000A24A04000100000000000000000000E0
:10131C0000000000000000000000000000000000C1
:10132C00000000000000000080250000000000000C
:10133C0000000000000000000038014000440040A4
:04134C000048004015
:02FC0000010001
:040000050800019559
:00000001FF
