:020000040800F2
:10000000001C002091010008310700083906000893
:10001000C506000879040008250C0008000000004F
:10002000000000000000000000000000A301000824
:100030007B04000800000000A10D0008A9090008C9
:10004000AB010008AB010008AB010008AB010008E0
:10005000AB010008AB010008AB010008AB010008D0
:10006000AB010008AB010008AB010008AB010008C0
:10007000AB010008AB010008AB010008AB010008B0
:10008000AB010008AB010008AB010008AB010008A0
:10009000AB010008AB010008AB010008AB01000890
:1000A000AB010008AB010008AB010008AB01000880
:1000B000AB010008AB010008AB010008AB01000870
:1000C000AB010008AB010008AB010008AB01000860
:1000D000AB010008AB010008AB010008AB01000850
:1000E000AB010008AB010008AB01000800F002F80A
:1000F00000F03EF80AA090E8000C82448344AAF184
:100100000107DA4501D100F033F8AFF2090EBAE881
:100110000F0013F0010F18BFFB1A43F0010318473B
:10012000F80C0000180D0000103A24BF78C878C100
:10013000FAD8520724BF30C830C144BF04680C60ED
:10014000704700000023002400250026103A28BF35
:1001500078C1FBD8520728BF30C148BF0B60704739
:100160001FB59DE8030000F0A9F81FBD10B510BD34
:1001700000F000F91146FFF7F3FF00F099FD00F0E1
:100180001EF903B4FFF7F2FF03BC00F04FF90000C3
:100190000948804709480047FEE7FEE7FEE7FEE71B
:1001A000FEE7FEE7FEE7FEE7FEE7FEE70448054957
:1001B000054A064B704700000D0A0008ED000008D4
:1001C00000160020001C002000180020001800204D
:1001D00070B5064600F056F8056806F10B0020F0F1
:1001E0000704B4429CBF002070BD2B466A68BAB1B8
:1001F0001068A04210D304F1080188423CBF506847
:10020000586007D35168101941601168091B0160DB
:1002100058601460101D70BD13465268002AE7D163
:100220002146284600F036F80028DED170BD70B5B2
:100230000446051F00F026F80068002C14BF44682F
:1002400070BD002C18BFAC423CBF20466468F8D398
:1002500001680A18AA4218BF456003D12A680546FA
:100260001144016028684119A1421CBF6C6070BD37
:100270006168696021680844286070BD70477047F4
:100280007047000000487047A8150020704770476D
:100290007047704738B504460A4600206946AFF3F8
:1002A0000080002808BF38BD02460099204600F0B3
:1002B0003FF8012038BD012000F054B8F8B5AFF385
:1002C0000080054600200C46102000BF0646A819F5
:1002D000A0420DD9324669460020AFF300800700E6
:1002E00008BF00F03FF80098A04218BF0546C419A7
:1002F000FFF7C8FF05600746F01D20F0070046190C
:10030000284600F00AF8B44208BFF8BDA21B3146E7
:100310003868BDE8F84000F00BB800210160C0E982
:10032000011070471020704700487047A01500204A
:10033000034640688C46002818BF88423CBF0346ED
:100340004068F8D318681844884207D00CF10300BD
:1003500020F00700001D411A521A0146081D0A60CC
:10036000FFF765BF10B500F039F8BDE8104000F0A8
:100370002FB870477546FFF7D7FFAE4605006946B0
:10038000534620F00700854618B020B5FFF70EFF52
:10039000BDE820404FF000064FF000074FF0000886
:1003A0004FF0000B21F00701AC46ACE8C009ACE807
:1003B000C009ACE8C009ACE8C0098D46704710B56B
:1003C0000446AFF300802046BDE81040FFF7D9BED9
:1003D000002801D000F02AB87047000010B50128AD
:1003E00005D0002103A000F027F8012010BD09A1CD
:1003F000F8E7000053494752544D454D3A204F7598
:1004000074206F662068656170206D656D6F72790C
:10041000000000003A2048656170206D656D6F72C4
:100420007920636F727275707465640001491820D9
:10043000ABBEFEE72600020070B505460C460A205A
:1004400000E06D1C00F011F835B128780028F8D1D3
:1004500002E0641C00F009F814B120780028F8D1FB
:10046000BDE870400A20AFF3008008B569468DF8FA
:1004700000000320ABBE08BDFEE77047054A936944
:10048000012181400B4202D1906908439061002014
:100490007047000000100240164A174990420A684F
:1004A00002D842F0080201E022F008020A60134A72
:1004B000904203D90A6842F010020A600A6822F0EA
:1004C00007020A6001D8086810E00D4A00EB020339
:1004D0000C4A934203D8086840F0010006E00A4B3A
:1004E0001844904203D8086840F0020008600020D9
:1004F0007047000000127A000020024000366E01B2
:10050000FFC991FEFF356E01FF9323FD074810B52B
:10051000016841F010010160032000F067F80F202E
:1005200000F006F800F024F8002010BD0020024082
:1005300070B50D4D04464FF47A712878B1FBF0F098
:100540000A490968B1FBF0F000F062F848B9102CD4
:1005500007D200222146501E00F028F800206C60CF
:1005600070BD012070BD000024000020300000207C
:100570000C4808B5816941F001018161816901F090
:1005800001010091C16941F08051C161C06900F071
:10059000805000900448416821F0E06141F0007112
:1005A000416008BD0010024000000140F0B40E4B55
:1005B0001B680C46C3F30223C3F10705042D00D9C1
:1005C0000425191D072901D2002300E0DB1E0126A6
:1005D00006FA05F1491E214099409E40761E1640BC
:1005E0003143F0BC00F01FBB0CED00E0064900F009
:1005F000070208684FF6FF03184040EA0220034A4A
:1006000010430860704700000CED00E00000FA05A0
:1006100010B5401EB0F1807F01D3012010BD4FF016
:10062000E02460610F21601700F0FDFA0020A06156
:1006300007202061002010BD7047000070B5040045
:100640000BD02078062808D861780F2905D8A17822
:10065000032902D8E178032901D9022070BD184985
:1006600051F82050801CC0B2FFF708FF60780F21BE
:1006700008280FD22A68800081408A432A60E078E7
:10068000A17840EA810061788900884029680843A0
:10069000286012E00F2810D8800020388140686858
:1006A00088436860E078A17840EA81006178890039
:1006B00020398840696808436860002070BD0000E8
:1006C00034000020FEE710B50220FFF781FD00286E
:1006D00003D0002101700A21417010BD70B50A4D90
:1006E000040009D170BD60782978884201D10120C9
:1006F00070BD012000F000FA20780028F3D101201D
:10070000207028786070F2E76000002060B1074A2E
:1007100041781278914207D1017829B10021017006
:100720000A214170012070470020704760000020BE
:10073000FEE770B505460C20FFF74AFD041E0AD0FF
:10074000A800FFF745FD206030B1A5800020E080C3
:1007500020816081204670BD2046FFF768FD0020A3
:1007600070BD70B50D46040017D06089A8B100F0C7
:1007700057F9E188206810F821002870E088A188E6
:10078000401CB0FBF1F201FB1200E0806089401ECA
:10079000608100F047F9012070BD002070BD18B1E4
:1007A000428983889A4201D30020704772B6038938
:1007B000026842F8231001898288491CB1FBF2F3D8
:1007C00002FB131101814189491C418162B601205C
:1007D0007047000078B50546344885422DD8344C22
:1007E0002068400CC00704D0324E606840F480306E
:1007F00007E020684008C0071FD02F4E606820F433
:1008000080306060002000902C48854202D904208E
:100810008DF801002A48854202D902208DF8000097
:100820000121684600F052F80321684600F04EF8B6
:10083000B5FBF6F0811E0F2901D3022078BD616857
:1008400021F47011616061681E4A02EB804001432F
:100850006160206840F08070206042F210710846AC
:1008600000E008B32268920101D4401EF9D260680A
:1008700020F003006060606840F00200606000E00B
:1008800091B16068C0F38100022801D0491EF7D2FF
:100890000D489DF8011001709DF8021041709DF8FF
:1008A00003108170002078BD032078BD00A24A04A7
:1008B0000010024000127A0000093D00005125029C
:1008C000001BB7000000F8FF5000002010B5B0B3C7
:1008D000234A244B31B1012913D0022920D0032906
:1008E0003CD12DE0C1780F2938D8516821F0F001B2
:1008F00051605168C47841EA04115160C078987021
:100900002AE04178072929D8516821F4E061516033
:100910005168447841EA04215160407818701BE026
:10092000817807291AD8516821F4605151605168C3
:10093000847841EAC4215160807858700CE00DE061
:10094000017803290AD8516821F440415160516867
:10095000007841EA80305060002010BD022010BDB8
:10096000001002405000002010B50E4C80B101284C
:1009700001D0022010BD0520FFF780FD206840F463
:10098000803020602068400CC007FBD0002010BDE4
:10099000206840F00100206020684008C007FBD0BC
:1009A000F4E700000010024010B500F031F8BDE897
:1009B000104000F02FB970B54FF0E0240026054636
:1009C00026610078012820691AD020F004002061F7
:1009D00068780128206916D020F00200206100F01C
:1009E00033F94FF4FA51B0FBF1F0401E6061A6619B
:1009F000A878012803D1206940F00100206170BD72
:100A000040F00400E3E740F00200E7E77047000031
:100A100002480168491C016070470000580000202E
:100A200072B6704762B67047114A002111481170C2
:100A30000123537080F8443080F858121B06C0F828
:100A40004812C0E990310C4BC0F83C320B4BC0E966
:100A50008D13C0F83012C0F82C12C0F82812C0F85C
:100A6000241200F5097101640220907070470000A3
:100A70006000002064000020DD0B00082D0B000842
:100A800030B51A4B01229724544303EB840494F8A5
:100A900044402CB1521CD2B2092AF4D3002030BDFC
:100AA00097256A43012403EB8202230682F844401F
:100AB000906482F858120021C2F84812C2F8441219
:100AC000C2E98F030A48C2E98D10C2F83012C2F899
:100AD0002C12C2F82812C2F82412064902F5097035
:100AE00010648878401C8870012030BD64000020AC
:100AF0002D0B000860000020094997220978514316
:100B0000084A02EB810191F84420022A06D0022211
:100B100081F84420044A1268C1E9942000F07AB8B0
:100B20006000002064000020580000200748007882
:100B3000002809D0002197225043054A02EB80008B
:100B400080F8441000F066B8704700006000002094
:100B5000640000200348972100784843024901EBD4
:100B600080007047600000206400002070B5002302
:100B70000A21174C01209722424304EB820292F88B
:100B80004450012D0DD0022D11D1124ED2F85052E9
:100B90003668751BD2F85462B54208D3012582F835
:100BA000445092F858229A4201D313460146401C01
:100BB000C0B20928DFD308480A2905D00170972060
:100BC000414304EB810070BD00210170004870BDFD
:100BD00064000020580000206000002000BF0120B9
:100BE000FFF78AFFFAE70000062801D902207047C4
:100BF000074A52F82020D068C840C3074FF00100D0
:100C000000FA01F002D05061002070471061FBE74C
:100C1000340000200248016841F0805101607047B3
:100C200004ED00E0FEE70907090E002804DB00F1EF
:100C3000E02080F80014704700F00F0000F1E02081
:100C400080F8141D7047000001484068704700009C
:100C50005000002010B5040004D06068FFF71CFCB1
:100C600070B901E0022010BD2078FFF77DFE38B991
:100C70006068FFF7AFFD0C4A616800285160F2D050
:100C80000A48016841F00101016042F210710268F6
:100C90005208D20701D1491EF9D2416821F003015F
:100CA0004160032010BD00005000002000100240F1
:100CB000FFF72CFC1548FFF7CDFF14480838FFF765
:100CC0007AFE12481C38FFF7B9FC10481838FFF7B5
:100CD000B5FC0E481438FFF7B1FC0A20FFF729FDD8
:100CE0000A4C1C3CE060FFF7EEFC2061FFF79CFE25
:100CF00002210748FFF7C4FE03210648FFF7C0FEA4
:100D000004210548FFF7BCFEFEE700001C000020A0
:100D10001D0D0008450D0008890D0008084C4FF412
:100D200096752069FFF7DAFC0121E068FFF737FDCF
:100D30002069FFF7EBFC2846FFF7DEFEF1E7000035
:100D40000000002008B50F4C4FF4C8752069FFF76C
:100D5000C5FC98B16946E068FFF703FD58B19DF8FE
:100D60000000012807D100210846FFF73DFF0121BF
:100D70000020FFF739FF2069FFF7C8FC2846FFF77E
:100D8000BBFEE3E7000000204FF4FA740D210220BF
:100D9000FFF72AFF2046FFF7AFFEF7E7000000004D
:100DA000FFF7D8FE1A4A1268012A25D0046245626C
:100DB0008662C762C0F83080C0F83490C0F838A0AE
:100DC000C0F83CB0EFF309810164FFF7CFFE046A7D
:100DD000456A866AC76AD0F83080D0F83490D0F877
:100DE00038A0D0F83CB0016C81F30988094B9842D7
:100DF000FFD06FF0020E70474FF0020C8CF3148896
:100E0000026C82F3098802494FF000020A60CDE7C4
:100E10005C00002064000020380E00080000002064
:100E200064000000280100089C0E000864000020F7
:100E30009C1B000044010008020D00030000000399
:100E4000000100030000000000000000000101009C
:100E5000000000000100000000A24A0401000000A0
:100E6000100000000000000000127A00000801409D
:100E7000000C014000100140001401400018014026
:100E8000001C0140002001400000000000000000A4
:0C0E900000000000010000000000000055
:04000005080000ED02
:00000001FF
