:020000040800F2
:10900000005000204D920008499200084992000843
:1090100049920008499200084992000800000000A7
:10902000000000000000000000000000499200085D
:109030004992000800000000C1A90008D59100086D
:109040004992000849920008499200084992000894
:109050004992000849920008499200084992000884
:109060004992000849920008499200084992000874
:109070004992000849920008499200084992000864
:109080004992000849920008499200084992000854
:109090004992000849920008499200084992000844
:1090A0004992000849920008499200084992000834
:1090B0004992000849920008499200084992000824
:1090C0004992000849920008499200084992000814
:1090D00049920008E5910008499200084992000869
:1090E00049920008499200084992000849920008F4
:1090F00049920008499200084992000849920008E4
:1091000049920008499200084992000849920008D3
:1091100049920008499200084992000849920008C3
:1091200049920008499200084992000849920008B3
:1091300070B50025144C154E82B002E00A2000F0F4
:1091400027FE20680DF1070100F066FF0028F5D02A
:10915000691C73199DF80720CDB2082D83F8702083
:10916000ECD9206800F074FF012809D00DF1070147
:10917000206800F051FF206800F06AFF0128F5D157
:1091800001F05EFB0025D9E79001002000000020DF
:1091900008B501F0C7FB4FF47A7000F0F9FDF8E76D
:1091A00008B50A4D0A4C95F87830FE2B09D12046B7
:1091B00000F096FB4FF48171204600F0D3FB01F0E4
:1091C000E1F8052000F0E4FDEDE700BF000000201D
:1091D00000FC000808B501F001F9BDE8084001F005
:1091E000DDB800BF034A044B51681868C9B200F0EB
:1091F000F7BE00BF003801409001002008B500F024
:1092000071FC0C4800F072FE0A4801F085FB052154
:10921000094800F0FFFB0321084800F0FBFB0A218E
:10922000074800F0F7FB092000F0C2FE054B18606C
:10923000FEE700BF00000020319100089191000876
:10924000A191000890010020FEE700BF094A0A48EA
:1092500008B5121A02D0094901F082FE084A0948ED
:10926000121A02D0002101F089FEBDE80840FFF784
:10927000C5BF00BF9001002000000020A8B1000879
:10928000F81600209001002000284AD02DE9F04176
:10929000C27D0446531E0F2B82B03CD80378012BAD
:1092A00039D84378012B36D88378012B33D8C3784B
:1092B000012B30D80379012B2DD84379012B2AD8E3
:1092C000037E072B27D800252B462E4612E00122CD
:1092D000CBB201A88DF804208DF805308DF806601A
:1092E0008DF8076000F070FDA8B9E27D0135EBB2A2
:1092F0009A4218D92344DB79112B0CD8072B0ED9AD
:10930000092BA3F10801E2D90F2BA3F10A03EDD831
:109310000222DBB2DDE7022002B0BDE8F0810022CC
:10932000D7E702207047A579032DF4D8092000F073
:1093300097FE0023032101A88DF80450ADF80530F5
:109340008DF8073000F0B6FE9F4B9A6822F00102BC
:109350009A609A68A17842EA41029A605A68217834
:1093600042EA01225A609A68617842EA01229A60D0
:109370009A68E17842EAC1229A609A68217942EAC1
:1093800001529A605A68617942EA41125A60DA6A77
:1093900022F47002DA62E57DDA6A691E42EA01525D
:1093A000DA62002D00F012815A6B267E22F01F0235
:1093B0005A63E279586B092A40EA0200C9B258633D
:1093C00000F22A814FF0070C1F6902EB420206FAF5
:1093D00002F00CFA02F227EA02021A611A69024349
:1093E0001A61012D00F04E81774A536B23F4787394
:1093F0005363237A506B092B40EA4310506300F209
:109400001D814FF0070C176903EB430306FA03F0C5
:109410000CFA03F327EA030313611369034313618F
:10942000022D00F02F81684A536B23F4F8435363F5
:10943000637A506B092B40EA8320506300F210815D
:109440004FF0070C176903EB430306FA03F00CFA1D
:1094500003F327EA03031361136903431361032D25
:1094600000F01081584A536B23F478235363A37A96
:10947000506B092B40EAC330506300F205814FF076
:10948000070C176903EB430306FA03F00CFA03F326
:1094900027EA03031361136903431361042D00F0EA
:1094A000F180494A536B23F0F8735363E37A506BAE
:1094B000092B40EA0350506300F2F8804FF0070C8C
:1094C000176903EB430306FA03F00CFA03F327EAE8
:1094D00003031361136903431361042940F20981F3
:1094E000394A536B23F078535363237B516B092B19
:1094F00041EA4361516300F2EB800727106903EBF7
:10950000430306FA03F107FA03F320EA03031361A6
:1095100013690B43136106218D4257D94FF0070C95
:1095200001EB810001EB0C031C444FF01F0E264A97
:109530003C38CBB212E013690CFA07F823EA0803AF
:109540001361136906FA07F71F4317610131CBB2A4
:109550009D4200F1050004F1010437D90B2B21D9FC
:10956000D36A0EFA00F723EA0703D3622378D2F80E
:109570002C8003FA00F747EA0807D762092B03EBB0
:109580004307D8D90A3BDBB2D76803EB43030CFA95
:1095900003F827EA0807D760D76806FA03F33B43C6
:1095A000D360D3E7136B00F11E070EFA07F823EA26
:1095B000080313632378D2F8308003FA07F747EAE9
:1095C00008071763DAE700BF0024014000214A4A78
:1095D000936843F0010393600191019BB3F57A7F97
:1095E00006D2019B01330193019BB3F57A7FF8D337
:1095F00042F21073404A916841F001019160916814
:1096000041F004019160906810F004003FF484AED2
:10961000013BF8D103207FE64FF0070C0A3AD2B2A3
:10962000DF6802EB420206FA02F00CFA02F227EAC5
:109630000202DA60DA680243DA60D2E64FF0070C21
:109640000A3BDBB2D76803EB430306FA03F00CFADC
:1096500003F327EA0303D360D3680343D360DFE651
:109660004FF0070C0A3BDBB2D76803EB430306FA63
:1096700003F00CFA03F327EA0303D360D368034330
:10968000D360ECE6294647E74FF0070C0A3BDBB214
:10969000D76803EB430306FA03F00CFA03F327EA57
:1096A0000303D360D3680343D360F7E64FF0070C9E
:1096B0000A3BDBB2D76803EB430306FA03F00CFA6C
:1096C00003F327EA0303D360D3680343D36004E7BB
:1096D00007270A3BDBB2D06803EB430306FA03F12A
:1096E00007FA03F320EA0303D360D3680B43D36084
:1096F00011E7052110E700BF00240140074B9A68DD
:10970000D10708D59A68D20505D59A68002042F499
:1097100080029A6070470420704700BF0024014017
:10972000002876D010B503780446062B6FD843780E
:10973000032B6CD88378012B69D8C378012B66D8AA
:109740000379022B63D84379022B60D88379012BEC
:109750005DD8C379012B5AD8037A012B57D8437AA5
:10976000012B54D8837A012B51D84369002B4ED05A
:10977000C368002B4BD00369002B48D0002000F0B9
:109780008BFC14222378002002FB03F303F18043B7
:1097900003F500339A6822F001029A609A686178B2
:1097A00042EA01329A609A68A17842EA81129A608C
:1097B0009A68E17842EAC1129A609A68217942EA8D
:1097C00001229A609A68617942EA81229A609A68D5
:1097D000A17942EA41129A609A68E17942EA01125B
:1097E0009A609A68217A42EAC1029A609A68617A1C
:1097F00042EA81029A609A68A17A42EA41029A603A
:109800006269DA60E2681A6122695A6110BD01205A
:1098100010BD0120704700BF062815D830B40D4C8C
:1098200000EB800204EB8202D168830071B10F214A
:10983000656801FA03F32B4363609368002030BC32
:1098400043F001039360704701207047022030BC51
:10985000704700BF000002401C4B10B498420ED865
:109860001B4A136843F008031360194B1A6822F06F
:1098700007021A601A681A60002010BC7047144B67
:10988000144C1A68A04222F008021A60EDD9196837
:10989000114A41F0100119601968024421F00701D2
:1098A000A242196006D21A68002042F0010210BCE0
:1098B0001A607047094A0244A242DDD21A680020A9
:1098C00042F0020210BC1A60704700BF00127A001A
:1098D0000020024000366E01FFC991FEFF9323FD78
:1098E00000F17843B3F5003F32D21B4AD368DB075F
:1098F000FCD41369190622D4174B1A6942F00202EC
:109900001A6158611A6942F040021A61DA68D20796
:10991000FCD4DA68500717D4DA68D1061AD4DA68AA
:109920000020920644BF2022DA600B4B1A6922F015
:1099300002021A611A6942F080021A6170470749EF
:10994000074B51605360D7E704220120DA60EDE74E
:10995000012070471022F8E70020024023016745EC
:10996000AB89EFCD10B40F4AD368DC07FCD40E4CA2
:109970000E4B5460536013690A4C43F001031361AA
:109980000180E368DA07FCD4E36824225B0744BF64
:109990000423E360034B10BCDA601A6942F08002D2
:1099A0001A6170470020024023016745AB89EFCD63
:1099B000064B1B7803B970474FF417700021044A17
:1099C00000FB032383F8441000F0E8BCD01600200D
:1099D000940100204FF417764FF002094FF0010870
:1099E00080B5094D094C0A4F00BF2B7806FB034395
:1099F00093F84420022A04D03A6883F84490C3E9DB
:109A0000942800F0CBFCEFE7D01600209401002052
:109A1000E01600202DE9F0412F4B054693F8A022D7
:109A2000F2B193F8FC24002A47D093F85827002A73
:109A300045D093F8B429002A43D093F8102C002A7B
:109A400041D093F86C2E002A3FD003F5805292F853
:109A5000C800E0B392F824230020D2B3BDE8F0811F
:109A600001224FF417784FF0010C00244FF080775B
:109A7000DFF868E008FB02F29EF80200184E60442E
:109A80008EF8020002F5097E1A4482F844C073443D
:109A900082F858126046C2E99144C2E98C44C2E996
:109AA0008A44C2F84072C2F8386213649564C2F8FE
:109AB0003C52C2F82442BDE8F0810222D1E70322E1
:109AC000CFE70422CDE70522CBE70622C9E707222C
:109AD000C7E70822C5E700BF94010020D016002088
:109AE000B199000810B54FF0807400224FF4807EC9
:109AF0004FF0010C02200F4B0F49C3F840420F4CAE
:109B0000A1F800E0C3F83C420D4C83F844C0C3F810
:109B1000384283F8582203F509748870C3E991220A
:109B2000C3E98A22C3F83422C3F83022C3F82422BE
:109B30001C6410BD94010020D0160020D5990008A7
:109B4000B19900084FF41770024A034B127800FBDA
:109B500002307047D01600209401002030B48848AD
:109B600090F8A032012B4ED0022B40D090F8FC345C
:109B7000012B00F0FE80022B4FF00A024FF0000193
:109B80004BD090F85837012B5ED0022B00F0E380C9
:109B900090F8B439012B61D0022B00F0CE8090F800
:109BA000103C012B64D0022B00F0B98090F86C3E81
:109BB000012B67D0022B734B00F0A58093F8C8C02F
:109BC000BCF1010F6AD0BCF1020F7FD093F824C31F
:109BD000BCF1010F6DD0BCF1020F00F085800A2AA4
:109BE0006CD10022684B66481A7030BC7047674BD6
:109BF000D0F8AC141B68D0F8B0245B1A9342B5D3EC
:109C0000012380F8A03290F8FC3490F8B414012BB2
:109C100010D0022B4FF00102B3D15C4BD0F80847B3
:109C20001B681B1BD0F80C47A342AAD30124134680
:109C300080F8FC4490F810278A4280F09E801A46F3
:109C400090F85837012BA0D190F86C3999429FD8E1
:109C5000194690F8B4390322012B9DD190F8C83BE6
:109C600099429CD8194690F8103C0422012B9AD1B5
:109C700090F8243E994299D8194690F86C3E0522F6
:109C8000012B97D13F4B93F880C0614596D8614630
:109C900093F8C8C00622BCF1010F94D193F8DCC23E
:109CA000614593D8614693F824C30722BCF1010FA4
:109CB00091D193F838358B4291D308224FF4177322
:109CC00003FB0200304B1A7030BC70472F4CD3F8A6
:109CD000D4522468641BD3F8D852AC42FFF476AF58
:109CE000012483F8C840D9E7284CD3F830552468BC
:109CF000A4EB050CD3F83445A445FFF470AF012460
:109D000083F82443D5E7214C9D6F2468641BDD6FE5
:109D1000AC42FFF453AF012480F86C4EB3E71B4B09
:109D2000D0F81C4E1B681B1BD0F8204EA342FFF43A
:109D30003DAF012380F8103C9AE7144BD0F8C04B9C
:109D40001B681B1BD0F8C44BA342FFF428AF0123B0
:109D500080F8B43982E70D4BD0F864491B681B1BAF
:109D6000D0F86849A342FFF413AF012380F85837B5
:109D70006AE7022290F8101703E71146022200E773
:109D80009401002094110020D0160020E01600203D
:109D90004FF41771094A0A4B127801FB023393F80A
:109DA0004420022A08D002220649C3F85402096856
:109DB00083F84420C3F8501200F0F0BAD016002007
:109DC00094010020E0160020002842D038B5037826
:109DD0000446062B28D842780F2A25D88278032AF1
:109DE00022D8C278032A1FD8981C1C4AC0B252F845
:109DF000235000F035F96378072B17D90F2B2AD899
:109E00000F21083B6A689B00994022EA01026A60C0
:109E100094F802C0E278696842EA8C0202FA03F31D
:109E20000B4300206B6038BD022038BD0F212A682B
:109E30009B00994022EA01022A6094F802C0E2786D
:109E4000296842EA8C0202FA03F30B4300202B60DC
:109E500038BD02207047002038BD00BF80B1000827
:109E6000062817D80F2915D8012A13D8124B07290D
:109E700010B453F820400FD823688800C34003F083
:109E80000303BBB101237AB1002003FA01F1216180
:109E900010BC7047022070476368A1F10800800081
:109EA000C34003F00303ECE703FA01F110466161DC
:109EB00010BC70470320EBE780B10008044B5A68E0
:109EC00012F4401F1CBF4FF400525A61704700BF8C
:109ED00000100140044B5A6812F4401F1CBF4FF49D
:109EE00000521A61704700BF0010014003462DE97F
:109EF000F04103241E4A1F4903F1040C1E4882B09E
:109F00004FF00108002725461C4EC1F810C0136011
:109F100000F0BAF968468DF801408DF800808DF8A0
:109F200002708DF803500134FFF74EFF336801A82B
:109F3000E4B20193FFF748FF082CEBD11048FFF77C
:109F400043FF104800F052FA0F48FFF79DF9094807
:109F5000FFF7E6FB0020FFF75FFCFFF7CFFB0B48A6
:109F600000F080FA002002B0BDE8F04100F0AABB8A
:109F7000D4160020BC000020E00000209CB10008A6
:109F8000D4000020D800002080000020E80000203D
:109F9000012243099B0003F1E023D3F8001100F0F4
:109FA0001F0002FA00F00843C3F80001704700BF29
:109FB00070B505460C2000F0C3FF044648B1A80068
:109FC00000F0BEFF0646206028B10023A580E38094
:109FD000A360204670BD204600F0BAFF3446F8E783
:109FE00028B143898288934202D30020704770478A
:109FF00010B5B0F808E001330EF1010CBCFBF2F42F
:10A0000002FB14C2046844F82E100281438100F060
:10A01000C5F9012010BD00BF0346C0B14089A8B1F9
:10A020000120B3F806C01A6800B552F82C200A7057
:10A03000DA88B3F804C00244B2FBFCFE0CFB1E221B
:10A040005989DA80013959815DF804FB70477047FE
:10A0500020B14089B0FA80F0400970470120704774
:10A060000123054A03FA00F09169014202D1936984
:10A070001843906100207047001002400123054AF8
:10A0800003FA00F0D169014202D1D3691843D061CB
:10A0900000207047001002400123054A03FA00F037
:10A0A0005169014202D15369184350610020704741
:10A0B0000010024000284BD030B4032945D8DFE817
:10A0C00001F0112233020478032C3ED80020224BE9
:10A0D000596821F4404159605A6842EA84325A6012
:10A0E00030BC7047C2780F2A2FD81B4B08465C68DB
:10A0F0001A4D24F0F0045C60596841EA021159607D
:10A100002A7030BC70474278072A1ED8124B144C74
:10A110005968002021F4E0615960596841EA022140
:10A120005960227030BC70478278072A12D80A4BD7
:10A130000C4C5968002021F460515960596841EA7B
:10A14000C2215960227030BC7047022030BC704779
:10A15000022070470846C3E700100240DC160020CA
:10A16000DD160020DE1600203E4B984277D83E4B8D
:10A170001A6892035BD41A68910770D55A683B49F4
:10A1800022F480325A603A4B10B5984258D8394B75
:10A1900098424FF000035ED89C469E46B0FBF1F01B
:10A1A0003149354C4A68023822F4E0624A604A6814
:10A1B0000E2843EA02034B6084F800C04A6822F488
:10A1C00040424A604B6843EA0E034B603FD84B68FD
:10A1D00023F470134B604B6843EA804048600A6880
:10A1E00042F2107342F080720A6001E0013B30D00D
:10A1F0000A689201FAD54B6842F2107223F0030309
:10A200004B604B6843F002034B60174901E0013A91
:10A210001FD04B68C3F38103022BF8D100231749E9
:10A22000174A0B701370184684F800C010BD5A68A6
:10A23000144942F480325A600D4B10B59842A6D9A9
:10A240004FF480634FF0040C4FF4004EA6E7022059
:10A2500010BD032010BD4FF4004E9C469EE7022027
:10A26000704700BF00A24A040010024000093D00F0
:10A2700000512502001BB700DD160020DE1600206D
:10A28000DC16002000127A0000283FD010B50446EA
:10A290004068FFF7E1FAE0B92378012B19D8002BC9
:10A2A0002BD01B4B9A69900603D49A6942F0200286
:10A2B0009A61174A136843F4803313601368990353
:10A2C000FCD56068FFF750FF124B62681A6000B956
:10A2D00010BD0F4942F211730A6842F001020A6090
:10A2E00001E0013B02D00A689207FAD5084A032030
:10A2F000536823F00303536010BD054A136843F00D
:10A300000103136013689B07FCD5DAE7022070474E
:10A3100000100240D8160020094B1878032808D9ED
:10A320000223084A043883401068DBB2B0FBF3F024
:10A3300070470123034A1068B0FBF3F0704700BF79
:10A34000DD160020D8160020094B1878032808D9FC
:10A350000223084A043883401068DBB2B0FBF3F0F4
:10A3600070470123034A1068B0FBF3F0704700BF49
:10A37000DE160020D8160020014B1868704700BF79
:10A38000D81600200349044BCA6802F4E062134364
:10A39000CB60704700ED00E00400FA05024A536804
:10A3A00043F080535360704700ED00E008B503466A
:10A3B000084A0949106800EB83038B4201D81360F7
:10A3C00008BD00F0B7FD0C2203464FF0FF301A60C5
:10A3D00008BD00BF1C010020F81E0020024A1368BF
:10A3E00001331360704700BFE01600204FF0E023F8
:10A3F000002210B51A6102780446012A1A690CBFBE
:10A4000042F0040222F004021A614FF0E022437885
:10A41000012B13690CBF43F0020323F00203136105
:10A42000FFF7AAFF03464FF0E02200210748A0FBF8
:10A4300003035B0A013B53619161A378012B00D0B8
:10A4400010BD136943F00103136110BDD34D6210B9
:10A45000034A116813685B1A8342FBD3704700BF3D
:10A46000E0160020002800F00981F0B5844A037846
:10A47000044652F8235083B0002D00F0F280012BE7
:10A480000CBF11201220FFF7F9FD2378002B00F0FC
:10A49000CF80012B00F0EB801220FFF7EFFD0320AF
:10A4A000FFF7DEFD2378002B40F0CC804FF41062E4
:10A4B0004FF42063ADF80020ADF8043040F20233D1
:10A4C0006846ADF80230FFF77FFC012301A8ADF824
:10A4D0000630FFF779FC0023EB602B616B61AB600A
:10A4E000AB61A3786278A17B1B0343EA4233E27835
:10A4F0000B43217943EAC223627943EA8123A1799C
:10A5000043EA4223E27943EA0123217A43EAC21370
:10A51000627A43EA8113A17A43EA4213E27A207B0A
:10A5200043EA011343EAC203617BEA6843EA80031A
:10A5300043EA41031343EB60237CE27B617C1B0312
:10A5400043EA8233A27C43EAC123E17C43EA8223CB
:10A55000227D43EA4123617D43EA0223A27D43EA4F
:10A56000811343EA4213E27D296902F00F0213438B
:10A570000B432B616A69637E217E5B0243EA812380
:10A5800094F822100B43A17E43EA0123E17E43EAC3
:10A59000C113217F43EA8113617F43EA4113A17F05
:10A5A00043EA0113E17F43EAC10394F8201043EA30
:10A5B000810394F8211043EA410313436B6123782C
:10A5C000002B51D1FFF7C0FE00F0ECFA0646606A9E
:10A5D000000100F0E7FA0146304600F0EFFB0746C5
:10A5E00000F088FC86B2304600F0E0FA01463846BA
:10A5F00000F026FA4FF0834100F02CFB00F07AFCCB
:10A6000000F00F0040EA061080B2A860238D5BBA0C
:10A610009BB2AB61286810F0080022D1EB6843F0D0
:10A620000803EB60EB6843F00403EB6003B0F0BD9C
:10A630000E20FFF715FD0220FFF712FD2378002BF7
:10A640003FF434AF012B07BF4FF400724FF4407357
:10A6500040F6012240F60133ADF80020ADF8043099
:10A660002CE7012003B0F0BDFFF756FEACE7112048
:10A67000FFF704FD0220FFF7F3FC13E70220704709
:10A68000200100200E4B53F82000A8B1A1B1C368EF
:10A690001B0713D55AB1013AD3B24A1E19440368B5
:10A6A0001B06FCD512F8013F8A424360F7D10368CC
:10A6B0005B06FCD5002070470120704705207047DD
:10A6C00020010020022810D8094B10B553F8204073
:10A6D0004CB12530C0B2FFF75BFCE368002043F0CB
:10A6E0002003E36010BD012010BD0120704700BFB2
:10A6F000200100204F4B2DE9F0471E68002537460A
:10A700004D4B8CB006F10C0493E8030027F8025F70
:10A7100064220090ADF804102046294600F02EFC7B
:10A72000331DCDE906734FF030096F4606F108037B
:10A73000B21DCDE908230B9606F10A033F4E0A939A
:10A740000DF130080DF1180E5EF8043BB3F800A0CF
:10A75000BAF1000F64D000210846D446A6FB0A32A5
:10A76000D20802EB8203AAEB430330331FFA82FACA
:10A7700000F130020131DBB26A44BCF1090FC9B209
:10A7800002F8203CE8D8002952D08DF8083078B380
:10A79000431EDBB203F130026A4412F8202C8DF81C
:10A7A00009202BB3831EDBB203F130026A4412F896
:10A7B000202C8DF80A20DBB1C31EDBB203F130027E
:10A7C0006A4412F8202C8DF80B208BB1031FDBB2EA
:10A7D00003F130026A4412F8202C8DF80C203BB1B2
:10A7E000431FDBB230336B4413F8203C8DF80D303F
:10A7F00002AB19440D7017F8012B9DF8083004F8CE
:10A80000012B33B102AA04F8013B12F8013F002BDF
:10A81000F9D1C64598D1002323700CB0BDE8F0876C
:10A8200017F8012B3023ADF8089004F8012BE9E765
:10A8300002A9DFE7E4160020A0B10008CDCCCCCC03
:10A8400070B5344E3368B3F8762093F8761052BA68
:10A85000A3F8782000293FD1012093F8702003212C
:10A860000240FFF7FDFA012401203368E11C234474
:10A8700093F87050044405402A46C9B2FFF7F0FA35
:10A88000062CF1D12A460F210020FFF7E9FA3268A1
:10A8900092F8711092F8720092F8703049008000BE
:10A8A00000F0040092F8734001F00201014303F04C
:10A8B000010392F874000B43E40092F8751004F061
:10A8C00008040001234300F010004901034301F094
:10A8D00020010B43138070BD012093F870200321E9
:10A8E0000240FFF7BDFA012401203368E11C234434
:10A8F00093F87050044405402A46C9B2FFF7B0FAF5
:10A90000062CF1D12A46BDE870400F210020FFF748
:10A91000A7BA00BFE4160020014B1860704700BFC3
:10A92000E416002008B5FFF7E5FE244B1B681A7BF0
:10A9300003F10C0152B10D33C3F1010C03EB0C0216
:10A9400013F8010B92B20028F8D1D2B20020FFF721
:10A9500099FEFFF7B3FA3220FFF77AFDFFF7BAFA54
:10A960003220FFF775FDFFF7A9FA3220FFF770FDDF
:10A97000FFF7B0FA3220FFF76BFDFFF79FFA3220A6
:10A98000FFF766FDFFF7A6FA3220FFF761FDFFF73C
:10A9900095FA3220FFF75CFDFFF79CFA3220FFF7B3
:10A9A00057FDFFF78BFA3220FFF752FDFFF792FABF
:10A9B000BDE808403220FFF74BBD00BFE416002081
:10A9C000FFF7C0F81A4A1268012A25D004624562CE
:10A9D0008662C762C0F83080C0F83490C0F838A0F2
:10A9E000C0F83CB0EFF309810164FFF7B7F8046ADF
:10A9F000456A866AC76AD0F83080D0F83490D0F8BB
:10AA000038A0D0F83CB0016C81F30988094B98421A
:10AA1000FFD06FF0020E70475FF0020C8CF31488C9
:10AA2000026C82F30988024900220A60CEE7000026
:10AA30007C0000209401002080F0004002E000BF74
:10AA400081F0004142001FBF5FEA410392EA030F19
:10AA50007FEA226C7FEA236C6AD04FEA1262D2EB63
:10AA60001363C1BFD218414048404140B8BF5B4268
:10AA7000192B88BF704710F0004F40F4000020F001
:10AA80007F4018BF404211F0004F41F4000121F017
:10AA90007F4118BF494292EA030F3FD0A2F1010261
:10AAA00041FA03FC10EB0C00C3F1200301FA03F19F
:10AAB00000F0004302D5494260EB4000B0F5000FC2
:10AAC00013D3B0F1807F06D340084FEA310102F181
:10AAD0000102FE2A51D2B1F1004F40EBC25008BF33
:10AAE00020F0010040EA03007047490040EB0000FD
:10AAF000013A28BFB0F5000FEDD2B0FA80FCACF1FE
:10AB0000080CB2EB0C0200FA0CF0AABF00EBC2502A
:10AB100052421843BCBFD0401843704792F0000F18
:10AB200081F4000106BF80F400000132013BB5E76B
:10AB30004FEA41037FEA226C18BF7FEA236C21D0E1
:10AB400092EA030F04D092F0000F08BF0846704746
:10AB500090EA010F1CBF0020704712F07F4F04D114
:10AB6000400028BF40F00040704712F100723CBF27
:10AB700000F50000704700F0004343F0FE4040F451
:10AB8000000070477FEA226216BF08467FEA23630F
:10AB90000146420206BF5FEA412390EA010F40F4FA
:10ABA000800070474FF0000304E000BF10F0004346
:10ABB00048BF40425FEA000C08BF704743F096432D
:10ABC00001464FF000001CE050EA010208BF704748
:10ABD0004FF000030AE000BF50EA010208BF7047CF
:10ABE00011F0004302D5404261EB41015FEA010CE4
:10ABF00002BF84460146002043F0B64308BFA3F1DC
:10AC00008053A3F50003BCFA8CF2083AA3EBC253BD
:10AC100010DB01FA02FC634400FA02FCC2F12002DC
:10AC2000BCF1004F20FA02F243EB020008BF20F013
:10AC30000100704702F1200201FA02FCC2F1200279
:10AC400050EA4C0021FA02F243EB020008BF20EA6E
:10AC5000DC7070474FF0FF0C1CEAD0521EBF1CEA9C
:10AC6000D15392EA0C0F93EA0C0F6FD01A4480EA8A
:10AC7000010C400218BF5FEA41211ED04FF0006373
:10AC800043EA501043EA5111A0FB01310CF000409F
:10AC9000B1F5000F3EBF490041EAD3715B0040EAC5
:10ACA000010062F17F02FD2A1DD8B3F1004F40EB95
:10ACB000C25008BF20F00100704790F0000F0CF068
:10ACC000004C08BF49024CEA502040EA51207F3A2C
:10ACD000C2BFD2F1FF0340EAC250704740F4000007
:10ACE0004FF00003013A5DDC12F1190FDCBF00F0F8
:10ACF00000407047C2F10002410021FA02F1C2F1A6
:10AD0000200200FA02FC5FEA310040F1000053EA41
:10AD10004C0308BF20EADC70704792F0000F00F08F
:10AD2000004C02BF400010F4000F013AF9D040EA95
:10AD30000C0093F0000F01F0004C02BF490011F429
:10AD4000000F013BF9D041EA0C018FE70CEAD15327
:10AD500092EA0C0F18BF93EA0C0F0AD030F0004CA7
:10AD600018BF31F0004CD8D180EA010000F000405B
:10AD7000704790F0000F17BF90F0004F084691F019
:10AD8000000F91F0004F14D092EA0C0F01D1420253
:10AD90000FD193EA0C0F03D14B0218BF084608D11C
:10ADA00080EA010000F0004040F0FE4040F4000066
:10ADB000704740F0FE4040F4400070474FF0FF0CF9
:10ADC0001CEAD0521EBF1CEAD15392EA0C0F93EA40
:10ADD0000C0F69D0A2EB030280EA010C49024FEA92
:10ADE000402037D04FF0805343EA111143EA10134B
:10ADF0000CF000408B4238BF5B0042F17D024FF403
:10AE0000000C8B4224BF5B1A40EA0C00B3EB510FDD
:10AE100024BFA3EB510340EA5C00B3EB910F24BFC6
:10AE2000A3EB910340EA9C00B3EBD10F24BFA3EB4B
:10AE3000D10340EADC001B0118BF5FEA1C1CE0D113
:10AE4000FD2A3FF650AF8B4240EBC25008BF20F0C6
:10AE5000010070470CF0004C4CEA50207F32C2BF1A
:10AE6000D2F1FF0340EAC250704740F400004FF0B7
:10AE70000003013A37E792F0000F00F0004C02BFE8
:10AE8000400010F4000F013AF9D040EA0C0093F0B2
:10AE9000000F01F0004C02BF490011F4000F013B0C
:10AEA000F9D041EA0C0195E70CEAD15392EA0C0F74
:10AEB00008D142027FF47DAF93EA0C0F7FF470AFAC
:10AEC000084676E793EA0C0F04D14B023FF44CAFEF
:10AED00008466EE730F0004C18BF31F0004CCAD184
:10AEE00030F000427FF45CAF31F000437FF43CAFC0
:10AEF0005FE700BF42000ED2B2F1FE4F0BD34FF01E
:10AF00009E03B3EB126209D44FEA002343F00043DF
:10AF100023FA02F070474FF00000704712F1610F02
:10AF200001D1420202D14FF0FF3070474FF00000D4
:10AF3000704700BF014B1868704700BF2C0100200C
:10AF4000024B0146186800F089B800BF2C010020B0
:10AF5000024B0146186800F019B800BF2C01002010
:10AF60000A44914200F1FF3300D1704710B511F847
:10AF7000014B914203F8014FF9D110BD0346024441
:10AF8000934200D1704703F8011BF9E738B5054635
:10AF9000002940D051F8043C0C1F002BB8BFE41826
:10AFA00000F0E0F81C4A136833B963601460284667
:10AFB000BDE8384000F0DCB8A34208D92068211869
:10AFC0008B4201BF19685B6809182160EDE71A46DA
:10AFD0005B680BB1A342FAD911685018A0420BD19B
:10AFE00020680144501883421160E0D118685B6802
:10AFF000014411605360DAE702D90C232B60D6E7D5
:10B00000206821188B4201BF19685B68091821600C
:10B0100063605460CBE738BDE816002070B50E4E73
:10B020000C463168054611B900F08CF830602146B5
:10B03000284600F087F8431C0AD0C41C24F00304FF
:10B04000A04207D0211A284600F07CF8013001D137
:10B050004FF0FF34204670BDEC1600202DE9F04182
:10B06000CD1C25F0030508350C2D38BF0C25002D0F
:10B07000074601DBA94205D90C2300263B60304678
:10B08000BDE8F0812E4E00F06DF833681C4634BBED
:10B0900029463846FFF7C2FF431C04464DD13468A9
:10B0A0002646002E40D123683146384604EB03087B
:10B0B00000F048F880453AD1216803356D1A25F033
:10B0C000030508350C2D38BF0C2538462946FFF7F7
:10B0D000A5FF01302BD023682B4423600EE02268AB
:10B0E000521B1ED40B2A16D96119A342256018BF22
:10B0F0005960636808BF316062514B60384604F1A3
:10B100000B0600F035F826F00706231DF21AB6D01C
:10B110009B1BA350B3E76268A3420CBF32605A6026
:10B12000ECE723466468B2E734467668B9E70C2357
:10B1300038463B6000F01CF8A1E72560DEE700BF61
:10B14000E816002038B50023054D044608462B605C
:10B15000FFF72CF9431C02D12B6803B1236038BDE3
:10B16000F0160020014800F009B800BFF4160020D6
:10B17000014800F004B800BFF41600207047704783
:10B1800000080140000C0140001001400014014083
:10B1900000180140001C014000200140000F000386
:08B1A0005457504359530000BD
:10B1A8000000000000000000000000000000000097
:10B1B8000000000000000000000000000000000087
:10B1C8000000000000000000000000000000000077
:10B1D8000000000000000000000000000000000067
:10B1E8000000000000000000000000000000000057
:10B1F8000000000000000000000000000000000047
:10B208000000000000000000000000000000000036
:10B218000000000000000000FF0100000100000025
:10B228000101010000000003040506000000000001
:10B2380000000000000000040700000000000000FB
:10B2480000000000000000000000000000000000F6
:10B2580000000000000000000000000000020001E3
:10B2680001010100000000004C2401400000000022
:10B2780004000000020D00030001010000000000AE
:10B288000100000000A24A040001000000000000C4
:10B2980000000000000000000000000000000000A6
:10B2A80000000000000000000000000000C20100D3
:10B2B800000000000000000000000000F816002058
:10B2C80000380140004400400048004030010020A0
:10B2D8000000000000000000000000000000000066
:10B2E8000000000000000000000000000000000056
:10B2F8000000000000000000000000000000000046
:10B308000000000000000000000000000000000035
:10B318000000000000000000000000000000000025
:10B328000000000000000000000000000000000015
:040000050800924D10
:00000001FF
