:020000040800F2
:1000000000500020610100085D0100085D0100084A
:100010005D0100085D0100085D01000800000000AE
:100020000000000000000000000000005D0100086A
:100030005D010008000000005D0100085D0100088E
:100040005D0100085D0100085D0100085D01000818
:100050005D0100085D0100085D0100085D01000808
:100060005D0100085D0100085D0100085D010008F8
:100070005D0100085D0100085D0100085D010008E8
:100080005D0100085D0100085D0100085D010008D8
:100090005D0100085D0100085D0100085D010008C8
:1000A0005D0100085D0100085D0100085D010008B8
:1000B0005D0100085D0100085D0100085D010008A8
:1000C0005D0100085D0100085D0100085D01000898
:1000D0005D010008310100085D0100085D010008B4
:1000E0005D0100085D0100085D0100085D01000878
:1000F0005D0100085D0100085D0100085D01000868
:100100005D0100085D0100085D0100085D01000857
:100110005D0100085D0100085D0100085D01000847
:100120005D0100085D0100085D0100085D01000837
:10013000024B03485B68837700F07CBA00380140CB
:100140008401002008B5044800F03AF800F05CF89B
:10015000322000F0E5FBF9E784010020FEE700BF54
:100160000F4A104808B5121A02D00F4900F0A0FF3C
:100170000E4B0F4AD21A04D018460E4900F098FFD1
:1001800003464FF0E0210C4A0C48C1F8083D121A12
:1001900002D0002100F09AFFBDE80840FFF7D2BF6F
:1001A0008401002030010020F81000080000002029
:1001B0003001002000000008D4010020840100204C
:1001C000024608B50B4B0C481A6000F003FB0B48C5
:1001D00000F07EFB0A4800F0C5FB002000F0D2FCD6
:1001E000084800F0F5F8BDE8084001220D21022082
:1001F00000F03AB9C00100203C010020300100208D
:10020000440100203801002010B5134C2068437FC2
:100210001BB9037F012B08D010BD00F053F9002358
:1002200020684377037F012BF6D11C210B4800F097
:1002300089F80B4B1A685C6882F308884FF0E02C51
:100240000022CCF8083D0D21022000F00DF92346D4
:10025000BDE81040184700BFC00100200090000812
:10026000002000081C4B10B498420ED81B4A13689B
:1002700043F008031360194B1A6822F007021A6052
:100280001A681A60002010BC7047144B144C1A688E
:10029000A04222F008021A60EDD91968114A41F013
:1002A000100119601968024421F00701A242196087
:1002B00006D21A68002042F0010210BC1A60704792
:1002C000094A0244A242DDD21A68002042F002022A
:1002D00010BC1A60704700BF00127A000020024074
:1002E00000366E01FFC991FEFF9323FD10B4124A40
:1002F000D368DC07FCD4114C114B54605360136974
:100300000D4C43F0010313610160E368D807FCD48E
:10031000E368590744BF0423E360074B10BCDA6865
:10032000920644BF2022DA602422034BDA601A6965
:1003300042F080021A6170470020024023016745A5
:10034000AB89EFCD00293AD0F0B44FF0000C042770
:1003500020261C4B1C4D1D4CDA68D207FCD45D6076
:100360005C601A6942F002021A6158611A6942F02F
:1003700040021A61DA68D207FCD4DA68520748BF33
:10038000DF60DA6892060DD5DE601A690CF1010CA7
:1003900042F0800261451A6100F58060DCD1F0BC5A
:1003A000002070471A690CF1010C42F080028C4564
:1003B0001A6100F58060CFD1F0BC002070470020AA
:1003C000704700BF0020024023016745AB89EFCD95
:1003D000002842D038B503780446062B28D8427846
:1003E0000F2A25D88278032A22D8C278032A1FD858
:1003F000981C1C4AC0B252F8235000F03FF96378B1
:10040000072B17D90F2B2AD80F21083B6A689B00AE
:10041000994022EA01026A6094F802C0E2786968B1
:1004200042EA8C0202FA03F30B4300206B6038BDF2
:10043000022038BD0F212A689B00994022EA010260
:100440002A6094F802C0E278296842EA8C0202FA33
:1004500003F30B4300202B6038BD022070470020BF
:1004600038BD00BFDC100008062817D80F2915D8A2
:10047000012A13D8124B072910B453F820400FD883
:1004800023688800C34003F00303BBB101237AB1A2
:10049000002003FA01F1216110BC7047022070476F
:1004A0006368A1F108008000C34003F00303ECE798
:1004B00003FA01F11046616110BC70470320EBE7BD
:1004C000DC1000082DE9F04190F823400546012C8E
:1004D000047110D0042C00F099807CB183692978D4
:1004E0006A88294491F82400504942EA0343687518
:1004F0000B60BDE8F08183690477F0E7B0F8212054
:10050000037852BA96B24280002B00F084805A1EC3
:10051000022A00F1200040F287806A6AC5F80520AF
:100520009A08012A0DD0A96A022AC5F8091008D034
:10053000032AE96A18BF2A6BC5F80D1018BFC5F861
:10054000112033F0FC0103F0FC0215D0811891F862
:1005500004C0511CC9B2AF18994287F805C00BD22C
:10056000471802323F79D2B229449A424F7103D2DE
:10057000104401792A445171A869EA1846EA0040FA
:1005800092F82420294E0027DFF8A4806A75306095
:1005900005E02B780434E4B2A342AAD930689C4227
:1005A000BCBF2A19517904F10102A8BF0021C8F883
:1005B0000070B8BFC8F80010934205DD2A44527994
:1005C00041EA0221C8F80010A21C934205DD2A442A
:1005D000527941EA0241C8F80010E21C934205DD5D
:1005E0002A44537941EA0361C8F800102044FFF718
:1005F0007DFE002CCDD1D8F800103068FFF776FED4
:100600002B78042B7FF675AF0424C7E7838C5BBA85
:100610009BB2836163E7806995F82420034B46EA27
:1006200000406A75186064E722468FE7C401002025
:10063000C8010020817F90F82030EE29037007D098
:10064000C27F531CDBB2024482F82010C37770478C
:10065000012200234277C377704700BF012243097C
:100660009B0003F1E023D3F8001100F01F0002FA11
:1006700000F00843C3F80001704700BF0123054A9A
:1006800003FA00F09169014202D193691843906125
:1006900000207047001002400123054A03FA00F0D1
:1006A000D169014202D1D3691843D061002070475B
:1006B000001002403E4B984277D83E4B1A68920396
:1006C0005BD41A68910770D55A683B4922F480328E
:1006D0005A603A4B10B5984258D8394B98424FF06F
:1006E00000035ED89C469E46B0FBF1F03149354C84
:1006F0004A68023822F4E0624A604A680E2843EAF7
:1007000002034B6084F800C04A6822F440424A6009
:100710004B6843EA0E034B603FD84B6823F47013D9
:100720004B604B6843EA804048600A6842F21073AD
:1007300042F080720A6001E0013B30D00A68920109
:10074000FAD54B6842F2107223F003034B604B68FA
:1007500043F002034B60174901E0013A1FD04B6898
:10076000C3F38103022BF8D100231749174A0B70FA
:100770001370184684F800C010BD5A68144942F43A
:1007800080325A600D4B10B59842A6D94FF4806361
:100790004FF0040C4FF4004EA6E7022010BD0320DA
:1007A00010BD4FF4004E9C469EE70220704700BFEC
:1007B00000A24A040010024000093D000051250239
:1007C000001BB700D1010020D2010020D001002081
:1007D00000127A0000283FD010B504464068FFF7A9
:1007E00041FDE0B92378012B19D8002B2BD01B4BEE
:1007F0009A69900603D49A6942F020029A61174AD6
:10080000136843F48033136013689903FCD5606860
:10081000FFF750FF124B62681A6000B910BD0F4914
:1008200042F211730A6842F001020A6001E0013BE2
:1008300002D00A689207FAD5084A0320536823F0C9
:100840000303536010BD054A136843F001031360AE
:1008500013689B07FCD5DAE70220704700100240BE
:10086000CC010020094B1878032808D90223084A34
:10087000043883401068DBB2B0FBF3F0704701230B
:10088000034A1068B0FBF3F0704700BFD1010020AD
:10089000CC010020094B1878032808D90223084A04
:1008A000043883401068DBB2B0FBF3F070470123DB
:1008B000034A1068B0FBF3F0704700BFD20100207C
:1008C000CC010020014B1868704700BFCC0100200C
:1008D0004FF0E02300221A6102780021012A1A69F0
:1008E0000CBF42F0040222F004021A614FF0E02231
:1008F0004378012B13690CBF43F0020323F002037A
:1009000013614FF0E0224368013B536191618378AA
:10091000012B03D1136943F001031361704700BF3A
:1009200000B9704738B500250446FFF7CBFF4FF0FC
:10093000E0220B4B2946A3FB000328465B0A013B40
:1009400053619561136943F0010313611369DB037C
:10095000FCD501318C429061F8D1106138BD00BFE7
:10096000D34D6210002800F00981F0B5844A037865
:10097000044652F8235083B0002D00F0F280012B82
:100980000CBF11201220FFF787FE2378002B00F008
:10099000CF80012B00F0EB801220FFF77DFE0320BB
:1009A000FFF76CFE2378002B40F0CC804FF41062F0
:1009B0004FF42063ADF80020ADF8043040F202336C
:1009C0006846ADF80230FFF703FD012301A8ADF83A
:1009D0000630FFF7FDFC0023EB602B616B61AB6021
:1009E000AB61A3786278A17B1B0343EA4233E278D0
:1009F0000B43217943EAC223627943EA8123A17937
:100A000043EA4223E27943EA0123217A43EAC2130B
:100A1000627A43EA8113A17A43EA4213E27A207BA5
:100A200043EA011343EAC203617BEA6843EA8003B5
:100A300043EA41031343EB60237CE27B617C1B03AD
:100A400043EA8233A27C43EAC123E17C43EA822366
:100A5000227D43EA4123617D43EA0223A27D43EAEA
:100A6000811343EA4213E27D296902F00F02134326
:100A70000B432B616A69637E217E5B0243EA81231B
:100A800094F822100B43A17E43EA0123E17E43EA5E
:100A9000C113217F43EA8113617F43EA4113A17FA0
:100AA00043EA0113E17F43EAC10394F8201043EACB
:100AB000810394F8211043EA410313436B612378C7
:100AC000002B51D1FFF7E6FE00F02AF90646606AD6
:100AD000000100F025F90146304600F02DFA0746E6
:100AE00000F0C6FA86B2304600F01EF901463846DC
:100AF00000F064F84FF0834100F06AF900F0B8FAB2
:100B000000F00F0040EA061080B2A860238D5BBAA7
:100B10009BB2AB61286810F0080022D1EB6843F06B
:100B20000803EB60EB6843F00403EB6003B0F0BD37
:100B30000E20FFF7A3FD0220FFF7A0FD2378002B76
:100B40003FF434AF012B07BF4FF400724FF44073F2
:100B500040F6012240F60133ADF80020ADF8043034
:100B60002CE7012003B0F0BDFFF77CFEACE71120BD
:100B7000FFF792FD0220FFF781FD13E70220704787
:100B800078010020022810D8094B10B553F82040F6
:100B90004CB12530C0B2FFF761FDE368002043F09F
:100BA0002003E36010BD012010BD0120704700BF8D
:100BB0007801002080F0004002E000BF81F0004199
:100BC00042001FBF5FEA410392EA030F7FEA226CF3
:100BD0007FEA236C6AD04FEA1262D2EB1363C1BF83
:100BE000D218414048404140B8BF5B42192B88BFF2
:100BF000704710F0004F40F4000020F07F4018BF15
:100C0000404211F0004F41F4000121F07F4118BF34
:100C1000494292EA030F3FD0A2F1010241FA03FCDC
:100C200010EB0C00C3F1200301FA03F100F00043C4
:100C300002D5494260EB4000B0F5000F13D3B0F18C
:100C4000807F06D340084FEA310102F10102FE2AFB
:100C500051D2B1F1004F40EBC25008BF20F001006B
:100C600040EA03007047490040EB0000013A28BF0A
:100C7000B0F5000FEDD2B0FA80FCACF1080CB2EB8D
:100C80000C0200FA0CF0AABF00EBC250524218430B
:100C9000BCBFD0401843704792F0000F81F40001B0
:100CA00006BF80F400000132013BB5E74FEA410383
:100CB0007FEA226C18BF7FEA236C21D092EA030FEF
:100CC00004D092F0000F08BF0846704790EA010F69
:100CD0001CBF0020704712F07F4F04D1400028BF96
:100CE00040F00040704712F100723CBF00F5000078
:100CF000704700F0004343F0FE4040F400007047AE
:100D00007FEA226216BF08467FEA23630146420259
:100D100006BF5FEA412390EA010F40F4800070476C
:100D20004FF0000304E000BF10F0004348BF404212
:100D30005FEA000C08BF704743F0964301464FF04E
:100D400000001CE050EA010208BF70474FF00003AA
:100D50000AE000BF50EA010208BF704711F00043EB
:100D600002D5404261EB41015FEA010C02BF8446BB
:100D70000146002043F0B64308BFA3F18053A3F51A
:100D80000003BCFA8CF2083AA3EBC25310DB01FA61
:100D900002FC634400FA02FCC2F12002BCF1004FE5
:100DA00020FA02F243EB020008BF20F00100704776
:100DB00002F1200201FA02FCC2F1200250EA4C00CA
:100DC00021FA02F243EB020008BF20EADC70704710
:100DD0004FF0FF0C1CEAD0521EBF1CEAD15392EA1E
:100DE0000C0F93EA0C0F6FD01A4480EA010C4002FA
:100DF00018BF5FEA41211ED04FF0006343EA501054
:100E000043EA5111A0FB01310CF00040B1F5000F95
:100E10003EBF490041EAD3715B0040EA010062F144
:100E20007F02FD2A1DD8B3F1004F40EBC25008BF2E
:100E300020F00100704790F0000F0CF0004C08BF4C
:100E400049024CEA502040EA51207F3AC2BFD2F119
:100E5000FF0340EAC250704740F400004FF0000327
:100E6000013A5DDC12F1190FDCBF00F00040704761
:100E7000C2F10002410021FA02F1C2F1200200FA9F
:100E800002FC5FEA310040F1000053EA4C0308BF66
:100E900020EADC70704792F0000F00F0004C02BFB7
:100EA000400010F4000F013AF9D040EA0C0093F032
:100EB000000F01F0004C02BF490011F4000F013B8C
:100EC000F9D041EA0C018FE70CEAD15392EA0C0FFA
:100ED00018BF93EA0C0F0AD030F0004C18BF31F065
:100EE000004CD8D180EA010000F00040704790F03B
:100EF000000F17BF90F0004F084691F0000F91F0DF
:100F0000004F14D092EA0C0F01D142020FD193EAA4
:100F10000C0F03D14B0218BF084608D180EA01002C
:100F200000F0004040F0FE4040F40000704740F008
:100F3000FE4040F4400070474FF0FF0C1CEAD052D6
:100F40001EBF1CEAD15392EA0C0F93EA0C0F69D032
:100F5000A2EB030280EA010C49024FEA402037D09D
:100F60004FF0805343EA111143EA10130CF0004094
:100F70008B4238BF5B0042F17D024FF4000C8B4284
:100F800024BF5B1A40EA0C00B3EB510F24BFA3EB64
:100F9000510340EA5C00B3EB910F24BFA3EB910334
:100FA00040EA9C00B3EBD10F24BFA3EBD10340EA8E
:100FB000DC001B0118BF5FEA1C1CE0D1FD2A3FF6D4
:100FC00050AF8B4240EBC25008BF20F00100704789
:100FD0000CF0004C4CEA50207F32C2BFD2F1FF032C
:100FE00040EAC250704740F400004FF00003013A5D
:100FF00037E792F0000F00F0004C02BF400010F401
:10100000000F013AF9D040EA0C0093F0000F01F014
:10101000004C02BF490011F4000F013BF9D041EA36
:101020000C0195E70CEAD15392EA0C0F08D1420269
:101030007FF47DAF93EA0C0F7FF470AF084676E73C
:1010400093EA0C0F04D14B023FF44CAF08466EE715
:1010500030F0004C18BF31F0004CCAD130F00042E3
:101060007FF45CAF31F000437FF43CAF5FE700BF3B
:1010700042000ED2B2F1FE4F0BD34FF09E03B3EB02
:10108000126209D44FEA002343F0004323FA02F02E
:1010900070474FF00000704712F1610F01D142021A
:1010A00002D14FF0FF3070474FF00000704700BF93
:1010B0000A44914200F1FF3300D1704710B511F896
:1010C000014B914203F8014FF9D110BD0346024490
:1010D000934200D1704703F8011BF9E70008014073
:1010E000000C0140001001400014014000180140B4
:0810F000001C0140002001403A
:1010F8000000010000000000020D000301000000D4
:1011080000A24A04000100000000000000000000E6
:1011180000000000000000000000000000000000C7
:10112800000000000000000000C2010000000000F4
:1011380000000000000000000038014000440040AA
:04114800004800401B
:04000005080001618D
:00000001FF
