:020000040800F2
:10000000D0070020C9010008930C0008A10A0008CD
:10001000910C00083905000861120008000000007A
:10002000000000000000000000000000FD0C0008BF
:100030006D07000800000000C10C00083F0F000819
:10004000E3010008E3010008E3010008E301000800
:10005000E3010008E3010008E3010008E3010008F0
:10006000E3010008E3010008E3010008E3010008E0
:10007000E3010008E3010008E3010008E3010008D0
:10008000E3010008E3010008E3010008E3010008C0
:10009000E3010008E3010008E3010008E3010008B0
:1000A000E3010008E3010008E3010008E3010008A0
:1000B000E3010008E3010008E3010008E301000890
:1000C000E3010008E3010008E3010008E301000880
:1000D000E301000851120008E3010008E3010008F1
:1000E000E3010008E3010008E301000800F002F862
:1000F00000F05AF80AA090E8000C82448344AAF168
:100100000107DA4501D100F04FF8AFF2090EBAE865
:100110000F0013F0010F18BFFB1A43F0010318473B
:10012000CC170000EC1700000A444FF0000C10F848
:10013000013B13F0070408BF10F8014B1D1108BF65
:1001400010F8015B641E05D010F8016B641E01F805
:10015000016BF9D113F0080F1EBF10F8014BAD1C55
:100160000C1B09D16D1E58BF01F801CBFAD505E073
:1001700014F8016B01F8016B6D1EF9D59142D6D3CD
:10018000704700000023002400250026103A28BFF5
:1001900078C1FBD8520728BF30C148BF0B607047F9
:1001A0001FB51FBD10B510BD00F037F81146FFF7A1
:1001B000F7FF01F0DFF800F055F803B4FFF7F2FFA6
:1001C00003BC00F059F8000009488047094800477F
:1001D000FEE7FEE7FEE7FEE7FEE7FEE7FEE7FEE7F7
:1001E000FEE7FEE704480549054A064B7047000054
:1001F000990F0008ED000008D0010020D007002072
:10020000D0030020D00300207047704770470000E3
:10021000004870477001002070477546FFF7F8FFEF
:10022000AE4605006946534620F00700854618B0E3
:1002300020B5FFF7D7FFBDE820404FF000064FF094
:1002400000074FF000084FF0000B21F00701AC460B
:10025000ACE8C009ACE8C009ACE8C009ACE8C0092A
:100260008D46704710B50446AFF300802046BDE8C8
:100270001040FFF7A2BF000001491820ABBEFEE707
:100280002600020007480168C90702D00168C905B5
:1002900001D404207047016841F48001016000200E
:1002A000704700000824014038B504460020009043
:1002B000032C01D9022038BD092000F095FA8DF8F1
:1002C00000400321684600F097FD002038BD000083
:1002D0002DE9F843040041D0E07DE8B310283DD873
:1002E000207801283AD86078012837D8A0780128EA
:1002F00034D8E078012831D8207901282ED86079C7
:1003000001282BD8207E072828D8002635461CE057
:10031000A019C079112821D8072801D8002109E0A7
:10032000092802D80121083803E00F280BD8022140
:100330000A38C0B200958DF800108DF801006846AB
:1003400000F01CFC40B9761CF6B2E07DB042DFD86C
:10035000A079FFF7A9FF00E000E010B10220BDE89E
:10036000F8837349086820F0010008600868A278E3
:1003700040EA42000860081F0268237842EA03222C
:1003800002600A68637842EA03220A600A68E37836
:1003900042EAC3220A600A68237942EA03520A60E9
:1003A0000268637942EA43120260614A24321068AB
:1003B00020F4700010601068E37D5E4E06EB03537E
:1003C0001843106000201F2307268BE0062818D250
:1003D000574F2C37D7F8008000EB800903FA09FC4F
:1003E00028EA0C08C7F8008004EB000C9CF8078092
:1003F000D7F800C008FA09F848EA0C08C7F80080E6
:1004000033E00C281AD2DFF828C10CF1280CDCF8F4
:100410000070A0F1060808EB880903FA09F827EA3A
:100420000807CCF800702718DCF80080FF7907FA7D
:1004300009F747EA0807CCF8007016E0D2F8008008
:10044000A0F10C0707EB870703FA07FC28EA0C0862
:10045000C2F8008004EB000C9CF807C00CFA07FC03
:1004600017684CEA070CC2F800C004EB000C9CF8BB
:100470000770092F1BD8DFF8B89009F10809D9F8DF
:10048000008007EB470706FA07F728EA0708C9F8CC
:1004900000809CF807C0277E0CEB4C0C07FA0CF789
:1004A000D9F800C047EA0C07C9F8007018E0DFF877
:1004B00080C00CF1040CDCF800800A3F07EB470910
:1004C00006FA09F728EA0708CCF8008094F81880A3
:1004D000DCF8007008FA09F848EA0708CCF8008050
:1004E000401CC0B2E77D87423FF670AF086840F01D
:1004F000010008604FF47A7200950098401C00904B
:100500009042FAD3086840F001000860086840F0A3
:100510000400086042F2107000E030B10A6852072F
:1005200001D5401EF9D2002019E7032017E700008B
:10053000082401400000F0FFFEE7000070B51E4DEA
:1005400000242868204490F8700000F00106E01CA8
:10055000C1B23246012000F085FE052C04D132469E
:100560000F21002000F07EFE641CE4B2052CE8D9C7
:10057000286890F8711001F0010290F8701062F391
:100580005F0190F8722002F0010241EA820190F8C6
:10059000732002F0010241EAC20190F8742002F0D7
:1005A000010241EA021190F8752002F0010241EACD
:1005B0004211018070BD00006C01002010B50400E4
:1005C0007ED0207806287BD860780328FBD8A078D6
:1005D000012875D8E078012872D8207902286FD8D0
:1005E000607902286CD8A079012869D8E0790128BF
:1005F00066D8207A012863D8607A012860D8A07A6A
:1006000001285DD8606900285AD0E068002857D0DA
:100610002069002854D0002000F0CAF8207800EBB0
:1006200080008100424801448A6822F001028A6009
:10063000217801EB810100EB81018A68637842EA4D
:1006400003328A60217801EB810100EB81018A6825
:10065000A37842EA83128A60217801EB810100EBE2
:1006600081018A68E37842EAC3128A60217801EB4B
:10067000810100EB81018A68237942EA03228A60C2
:10068000217801EB810100EB81018A68637942EAFC
:1006900083228A60217801EB810100EB81018A6865
:1006A000A37942EA43128A60217801EB810100EBD1
:1006B00081018A68E37942EA03128A60217800E0C6
:1006C00033E001EB810100EB81018A68237A42EA81
:1006D000C3028A60217801EB810100EB81018A6805
:1006E000637A42EA83028A60217801EB810100EBA0
:1006F00081018A68A37A42EA43028A6022786169AA
:1007000002EB820200EB8202D1602278E16802EB08
:10071000820200EB820211612278216902EB8202DF
:1007200000EB82004161002010BD012010BD0000DF
:100730000000024010B5062801D9012010BD0A4A68
:1007400000EB800102EB8101CB685BB15368840050
:100750000F20A04003435360886840F00100886088
:10076000002010BD022010BD0000024070470000B4
:10077000034A116813685B1A8342FBD37047000079
:10078000B000002010B503280DD2084951F82040D0
:100790004CB12530C0B200F035F8E06840F02000E0
:1007A000E060002010BD012010BD0000B800002056
:1007B000054A5369012181400B4202D15069084327
:1007C000506100207047000000100240054AD369C4
:1007D000012181400B4202D1D0690843D061002041
:1007E0007047000000100240054A936901218140D2
:1007F0000B4202D1906908439061002070470000CD
:10080000001002404109890001F1E021D1F80021E6
:1008100000F01F03012098400243C1F800217047F7
:10082000164A174990420A6802D842F0080201E0CD
:1008300022F008020A60134A904203D90A6842F083
:1008400010020A600A6822F007020A6001D80868EC
:1008500010E00D4A00EB02030C4A934203D80868EB
:1008600040F0010006E00A4B1844904203D80868A3
:1008700040F00200086000207047000000127A007B
:100880000020024000366E01FFC991FEFF356E0167
:10089000FF9323FD034600B5A0F10060B0F5003FD3
:1008A00001D3012000BD194AD068C007FCD11069EE
:1008B000000601D500F034F8106940F00200106124
:1008C0005361106940F040001061D068C007FCD14E
:1008D000D068400701D5042003E0D068C00608D5E1
:1008E0001020D060106920F00200106100F010F8B4
:1008F000D7E7D068800601D52020D060106920F0AD
:100900000200106100F004F8002000BD0020024049
:100910000248016941F080010161704700200240F6
:10092000034802494160034941607047230167451C
:1009300000200240AB89EFCD10B50D4A0B460446AE
:10094000D068C007FCD1FFF7EBFF106940F0010051
:1009500010612380D068C007FCD1D068400701D562
:100960000420D0602420D060BDE81040FFF7D0BF45
:1009700000200240074810B5016841F010010160F5
:10098000032000F067F80F2000F006F800F024F8CC
:10099000002010BD0020024070B50D4D04464FF4FC
:1009A0007A712878B1FBF0F00A490968B1FBF0F0E0
:1009B00000F062F848B9102C07D200222146501EE0
:1009C00000F028F800206C6070BD012070BD0000B0
:1009D0007C000020880000200C4808B5816941F0A7
:1009E00001018161816901F001010091C16941F05A
:1009F0008051C161C06900F0805000900448416896
:100A000021F0E06141F00071416008BD001002403A
:100A100000000140F0B40E4B1B680C46C3F30223E8
:100A2000C3F10705042D00D90425191D072901D29A
:100A3000002300E0DB1E012606FA05F1491E2140D5
:100A400099409E40761E16403143F0BC00F02EBC0B
:100A50000CED00E0064900F0070208684FF6FF03BE
:100A6000184040EA0220034A104308607047000023
:100A70000CED00E00000FA0510B5401EB0F1807FDB
:100A800001D3012010BD4FF0E02460610F216017F9
:100A900000F00CFC0020A06107202061002010BDA8
:100AA000FEE7000001490860704700006C0100206B
:100AB000F0B52FA191B0D1E900012F4ACDE90B018A
:100AC0000024106864230C30014601E001F8014B5A
:100AD0005B1E9BB2FAD211680DF1100E8A1C0492B3
:100AE0000A1D05928A1D0692921C0792921CCDE95E
:100AF000082100220EAC94465EF8221002AE0B884C
:100B0000002173B15FF00A05B3FBF5F705FB17375A
:100B1000B3FBF5F330376754491CC9B2002BF3D14E
:100B20000BE030218DF808108DF809C009E0491E4E
:100B3000C9B2655CF5545B1CDBB20029F7D106F83D
:100B400003C03146062A08D20BAB9B5C00F8013B80
:100B500003E000BF00F8013B491C0B78002BF9D1E2
:100B6000521CD2B2062AC7D380F800C011B0F0BD23
:100B700054575043595300006C01002070B50400D5
:100B80000BD02078062808D861780F2905D8A178DD
:100B9000032902D8E178032901D9022070BD184940
:100BA00051F82050801CC0B2FFF71EFE60780F2164
:100BB00008280FD22A68800081408A432A60E078A2
:100BC000A17840EA8100617889008840296808435B
:100BD000286012E00F2810D8800020388140686813
:100BE00088436860E078A17840EA810061788900F4
:100BF00020398840696808436860002070BD0000A3
:100C00008C00002038B5074D0324286800908DF82B
:100C100001406846FFF7B2FF641CE4B2072CF4D928
:100C200038BD0000E8180008184910B5C8609031B8
:100C3000801C0861A1F1780000F06EFBFFF7E2FF75
:100C40001248001DFFF79AFF10480830FFF796FF83
:100C50000E48FFF793FF0D48103000F072F90B4873
:100C60005430FFF735FB09489030FFF7A7FC002010
:100C7000FFF760FDFFF706FB0448203000F0B6F9EF
:100C8000BDE810400020FFF77DBD0000C40000203B
:100C9000FEE7FEE703480168034A01F4E0611143FF
:100CA000016070470CED00E00400FA0501220D21FF
:100CB000022000F0D7BA00220D21022000F0D2BAA3
:100CC000704700000C4910B50968EE2808D091F86B
:100CD000792001F17004531C81F87930105510BD52
:100CE000012081F87800002081F8790011F8760F52
:100CF00048714878087110BD6C01002070470000F1
:100D000078B50546344885422DD8344C2068400CCF
:100D1000C00704D0324E606840F4803007E020689D
:100D20004008C0071FD02F4E606820F480306060FC
:100D3000002000902C48854202D904208DF8010043
:100D40002A48854202D902208DF800000121684618
:100D500000F052F80321684600F04EF8B5FBF6F0BB
:100D6000811E0F2901D3022078BD616821F4701122
:100D7000616061681E4A02EB804001436160206847
:100D800040F08070206042F21071084600E008B325
:100D90002268920101D4401EF9D2606820F003005D
:100DA0006060606840F00200606000E091B16068DF
:100DB000C0F38100022801D0491EF7D20D489DF8EA
:100DC000011001709DF8021041709DF803108170B0
:100DD000002078BD032078BD00A24A040010024024
:100DE00000127A0000093D0000512502001BB700E7
:100DF0000000F8FFA800002010B5B0B3234A244B30
:100E000031B1012913D0022920D003293CD12DE092
:100E1000C1780F2938D8516821F0F001516051682C
:100E2000C47841EA04115160C07898702AE0417892
:100E3000072929D8516821F4E0615160516844784C
:100E400041EA04215160407818701BE0817807293D
:100E50001AD8516821F4605151605168847841EA90
:100E6000C4215160807858700CE00DE001780329AE
:100E70000AD8516821F4404151605168007841EA34
:100E800080305060002010BD022010BD00100240D4
:100E9000A800002010B50E4C80B1012801D002201E
:100EA00010BD0520FFF7A0FC206840F480302060D2
:100EB0002068400CC007FBD0002010BD206840F027
:100EC0000100206020684008C007FBD0F4E7000064
:100ED0000010024010B5FFF7EEFE3220FFF748FC8D
:100EE000FFF7E4FE3220FFF743FCFFF7E4FE322079
:100EF000FFF73EFCFFF7DAFE3220FFF739FCFFF781
:100F0000DAFE3220FFF734FCFFF7D0FE3220FFF785
:100F10002FFCFFF7D0FE3220FFF72AFCFFF7C6FEBA
:100F20003220FFF725FCFFF7C6FE3220FFF720FC3A
:100F3000FFF7BCFEBDE810403220FFF719BC00F0FF
:100F40002DB870B54FF0E0240026054626610078E4
:100F5000012820691AD020F0040020616878012857
:100F6000206916D020F00200206100F0CFF94FF484
:100F7000FA51B0FBF1F0401E6061A661A87801282B
:100F800003D1206940F00100206170BD40F00400F1
:100F9000E3E740F00200E7E770470000024801681D
:100FA000491C016070470000B00000200E4B10B5D6
:100FB00053F8200028B121B1C3681B0703D40520D2
:100FC00010BD012010BD002306E004682406FCD5F6
:100FD000CC5C44605B1CDBB29342F6D301684906EB
:100FE000FCD5002010BD0000B8000020FEB50400B4
:100FF0007ED02078854951F82050002D79D00128E5
:1010000078D01220FFF7E2FB2078002873D0012867
:1010100072D01220FFF7DAFB5FF00300FFF7E4FB6A
:1010200023780A220026022003210127002B7DD0ED
:10103000012B7CD08DF800708DF801208DF80870A0
:101040005FF00B028DF809208DF803108DF8020077
:101050006846FFF793FD8DF80B608DF80A7002A8C3
:10106000FFF78CFDEE602E616E61AE60AE61607860
:10107000A178400340EA0130E17840EAC1202179BB
:1010800040EA8120617940EA4120A17940EA0120CB
:10109000E17940EAC110217A40EA8110617A40EAA0
:1010A0004110A17A40EA0110E17A40EAC100217BB7
:1010B00040EA8100617B40EA4100A17B0843E96886
:1010C0000843E860E07B217C800340EA0130617CDA
:1010D00040EAC120A17C40EA8120E17C40EA412035
:1010E000217D40EA0120617D40EA8110A17D04E07C
:1010F00060E05DE060E061E065E040EA4110E17DD4
:1011000001F00F010843296908432861207E617EB0
:10111000800240EA4120A17E40EA0120E17E40EACF
:10112000C110217F40EA8110617F01E050E057E06B
:1011300040EA4110A17F40EA0110E17F40EAC1008E
:1011400094F8201040EA810094F8211040EA410010
:1011500094F822100843696908436861207888B3CD
:1011600000F0B4F80746606A000100F06FFA064626
:10117000384600F06BFA314600F086F9074600F079
:1011800045FA86B2304600F061FA394600F0BCFA02
:10119000042100F06AFB00F039FAC0B266F31F10B8
:1011A00080B2A860208D40BAA8612868000723D5C6
:1011B0000120FEBD0220FEBD112023E70E20FFF717
:1011C00013FB03E015E01120FFF700FB022025E7E9
:1011D0008DF8006009238DF801308DF8086031E743
:1011E0008DF800608DF808608DF801008DF8091009
:1011F0002AE700F07BF8B5E7E86840F00800E8600F
:10120000E86840F00400E8600020FEBDB80000205F
:1012100010B5FFF793F9FFF74BFC0C4802680C324E
:101220001146002001E0401C80B212F8013B002B67
:10123000F9D1C2B20020FFF7B9FEFFF74BFEBDE8BF
:10124000104040F6C410FFF793BA00006C01002074
:1012500002480068C0B2FFF735BD00000438014005
:10126000FEE7000010B5062804D80F2902D81AB1ED
:10127000012A01D0022010BD0B4B53F820008B0037
:10128000082901D2046801E04468203BDC4014F0E6
:10129000030F05D001238B4022B10361002010BD54
:1012A000032010BD4361F9E78C0000200907090EF7
:1012B000002804DB00F1E02080F80014704700F003
:1012C0000F0000F1E02080F8141D704706490878EF
:1012D000042801D2012202E00222001F8240496854
:1012E000D0B2B1FBF0F07047A80000200649487862
:1012F000042801D2012202E00222001F8240496834
:10130000D0B2B1FBF0F07047A8000020014840685F
:1013100070470000A800002010B5040004D06068E9
:10132000FFF77EFA70B901E0022010BD2078FFF7C8
:10133000B1FD38B96068FFF7E3FC0C4A616800282A
:101340005160F2D00A48016841F00101016042F2A7
:10135000107102685208D20701D1491EF9D24168C2
:1013600021F003014160032010BD0000A80000200F
:1013700000100240FFF7FEFA0D48FFF755FC0C483D
:10138000FFF790FB0A4D0B4C40F2011695F87A00DE
:10139000FF2809D02046FFF77DFA31462046FFF7A7
:1013A000CBFAFFF777FCF1E7FFF732FFEEE700003B
:1013B0000000002000FC000890EA010F48BF81F007
:1013C000004100F1B281421A3CBF801A89184FEAED
:1013D000D0524FF07F4C1CEA410FA2EBD15318BF03
:1013E0009CEA026F00F03B804FF0004C4CEA00207A
:1013F0004CEA012121FA03FC10EB0C0C1ED202F185
:10140000FF325FEA1C2040EBC25038BF70471CF02F
:101410007F0F4FEA400C18BFBCF17F4F38BF7047B9
:10142000C3F12003994008BF20F00100BCF17F4FB9
:1014300038BF7047A0F1C04000F061B94FEA3C00EE
:10144000000A40EBC25028BF1CF0FF0F4FEA400CCF
:10145000E6D018BFBCF17F4F38BF7047EAE79CEA7F
:10146000026F05D010EA5C0F08BF00F00040704723
:1014700010B500F0FEF800BF64FBBE3E014800F06E
:10148000C2B900BF0000C07F4FF47F0C1CEAD0122D
:101490001EBF1CEAD11392EA0C0F93EA0C0F00F066
:1014A000858090EA010F48BF42F4807240F4000C3E
:1014B00041F400002CF07F4120F07F4000B58142D4
:1014C000A2EB03020FF2081CACEB504EC0F100007F
:1014D0009EF800E04FEA4E0E00FB0EFC38BF4900BC
:1014E0004FEA2C1C02F5FA020CFB0EF34FEACE1E5B
:1014F0004FEA112C4FEAC1210EEB635E42EB224210
:101500000EFB0CFC4FEA1C5300FB03114FEA112C9D
:101510004FEA01310EFB0CFC4FEADC4C00FB0C11D6
:10152000C14228BF09184CEB03335DF804EB10EB04
:10153000410143EBC250B2F57C0F38BF704729D54B
:1015400012F0F00F1CBF00F1C04000F000407047E7
:10155000008182838485868788898B8C8D8E8F918C
:101560009293959697999A9C9D9FA0A2A3A5A7A8B0
:10157000AAACAEB0B2B3B5B7B9BCBEC0C2C5C7C9DC
:10158000CCCED1D4D7D9DCDFE2E6E9ECF0F3F7FA40
:10159000FE0000004FEA400C0CF1807CBCF17E4F55
:1015A00028BF7047B0F1C04000F0A9B890EA010F21
:1015B0000CEAD11348BF42F48072624538BF6345DC
:1015C00007D213F47F0F16D080EA010000F000402C
:1015D000704710B500F04DF8097EFC3E00F005B8EC
:1015E00080EA010000F00040704780EA010000F04E
:1015F000004000F084B812F47F0F04BF0248704727
:1016000080EA010000F07BB80000C07FC10DD1F17D
:101610009E0206DB4FEA002343F0004323FA02F068
:101620007047004207D54FEA4001B1F1FE4F02D2A8
:101630004FF00000704710B500F01BF8499224806D
:10164000002070476FEA200070470000B0FA80F376
:1016500010FA03F2C3F19D030AD0D90501EB122061
:10166000530638BF704700F1010008BF20F00100A9
:1016700070470EF1020E2EF0030E5EF8044B24426A
:1016800004D44FEA4102B2F17F4F11D84FEA400330
:10169000B3F17F4F0CD80ED14FEAD07CB2F17F4F1F
:1016A0000CEB4C0C0CF1020C08BF4CEBD17C04E0B1
:1016B0004FF0080C01E04FEAD17C0CEB4C0324FA0C
:1016C00003F404F00704B4F1040C06D20EEB840C0E
:1016D000BDE810404CF0010C6047DFE80CF0070853
:1016E00002024FF00040A0F5800010BD0846420005
:1016F00018BFD2F1807288BF00F0004010BDFF21FA
:1017000041EAD050C005704780F0004090EA010FD8
:101710007FF559AE81F0004100F007B890EA010F63
:1017200048BF81F000413FF54EAE421A04D882F026
:101730000042A0EB020011444FEAD0524FF07F4C20
:101740001CEA410FA2EBD15318BF9CEA026F4AD0AA
:101750004FF0004C4CEA00204CEA012121FA03FC36
:10176000B0EB0C0C0FD412F0FE0F36D05FEA4C0039
:101770001DD5001240EBC25038BF70471CF03F0F20
:1017800018BF70470BE0A2F101025FEA1C2040EB9A
:10179000C25038BF70471CF07F0F18BF7047C3F1AD
:1017A0002003994014BF401E20F0010070478008BC
:1017B0004FEA122308BF7047B0FA80FCA2EB0C027C
:1017C000CCF1280C60FA0CF093EA122F04BF00EB66
:1017D000C25070474FEAC3707047130A5FEADC10CB
:1017E00008BF7047F6E79CEA026F04D010EA5C0F6E
:1017F00008BF0020704710B5FFF73BFF40DFF63E03
:1018000081F0004070470CF00F03092B08BF08203F
:1018100000F051800A2B0BD0082B18BF704708BF6F
:101820001CF0400F0AD04FF000004FF0000170474D
:101830001CF0400F18BF4FF0004070471CF0100F15
:1018400008D020F0704300F07F4242EAD3014FEA13
:101850004370704700F0604021F07F4242EA00028E
:1018600001F07F4040EA727070474FF0FF0212EAC9
:10187000D0521CBF92F0FF038B42C2BFD14200EB9B
:10188000C1507047002A0AD0002B0BD0002900F06D
:101890000040A4BF40F0FE4040F40000704700F05C
:1018A0000040704743024FF00B0C18BF4CF0806CA7
:1018B0007FF4E4AD70471CF4801F11D01CF4E02FBE
:1018C00003D06FEACC31490070474FF04050EFF33E
:1018D000008222F0704242EA000282F300887047E0
:1018E0004FF0000070470000010000030C190008D1
:1018F0000000002070010000280100087019000895
:10190000700100206006000084010008017A34FFA5
:101910000101821023127A140801401A0C041A10D3
:10192000041A14041A18041A1C041A200401101AA8
:1019300038141244124012481440020D12031A07C0
:101940000454080203195A1B282307414CA24A04D5
:1019500009011EE380253A019E11C5030405060313
:101960002404072A023F49754B4C24BC7204000032
:04000005080000ED02
:00000001FF
