:020000040800F2
:1000000048070020890100082B070008CD050008DB
:1000100029070008A1020008D90B00080000000011
:10002000000000000000000000000000750700084C
:10003000C1020008000000002D0700084D0900085B
:10004000A3010008A3010008A3010008A301000800
:10005000A3010008A3010008A3010008A3010008F0
:10006000A3010008A3010008A3010008A3010008E0
:10007000A3010008A3010008A3010008A3010008D0
:10008000A3010008A3010008A3010008A3010008C0
:10009000A3010008A3010008A3010008A3010008B0
:1000A000A3010008A3010008A3010008A3010008A0
:1000B000A3010008A3010008A3010008A301000890
:1000C000A3010008A3010008A3010008A301000880
:1000D000A3010008C10B0008A3010008A301000848
:1000E000A3010008A3010008A301000800F002F822
:1000F00000F03AF80AA090E8000C82448344AAF188
:100100000107DA4501D100F02FF8AFF2090EBAE885
:100110000F0013F0010F18BFFB1A43F0010318473B
:100120000812000028120000103A24BF78C878C1D5
:10013000FAD8520724BF30C830C144BF04680C60ED
:10014000704700000023002400250026103A28BF35
:1001500078C1FBD8520728BF30C148BF0B60704739
:100160001FB51FBD10B510BD00F031F81146FFF7E7
:10017000F7FF00F0B5FD00F04FF803B4FFF7F2FF12
:1001800003BC00F057F800000948804709480047C1
:10019000FEE7FEE7FEE7FEE7FEE7FEE7FEE7FEE737
:1001A000FEE7FEE704480549054A064B7047000094
:1001B00099090008ED0000084801002048070020C8
:1001C0004803002048030020704770477047754679
:1001D00000F02CF8AE4605006946534620F00700B3
:1001E000854618B020B5FFF7DDFFBDE820404FF091
:1001F00000064FF000074FF000084FF0000B21F011
:100200000701AC46ACE8C009ACE8C009ACE8C009DD
:10021000ACE8C0098D46704710B50446AFF30080C6
:100220002046BDE81040FFF7A8BF00000048704717
:10023000E800002001491820ABBEFEE726000200BE
:100240007047000070B5134CA068417F21B100F0E9
:1002500037FAA16800204877A068007F012817D1ED
:1002600020780D4D0D4E01284FF01C0109D030466D
:1002700000F0C6F8012020702846BDE8704000F06C
:1002800005BA284600F0BCF8022020703046F4E79A
:1002900070BD00005C0000200090000800200008F5
:1002A000FEE710B500231A4604E0845C521C234488
:1002B000DBB2D2B28A42F8D3D843401CC0B210BDE0
:1002C0007047000010B503280DD2084951F82040AE
:1002D0004CB12530C0B200F027F8E06840F02000B3
:1002E000E060002010BD012010BD00005000002083
:1002F000054AD369012181400B4202D1D0690843EC
:10030000D06100207047000000100240054A936948
:10031000012181400B4202D1906908439061002085
:1003200070470000001002404109890001F1E021FE
:10033000D1F8002100F01F03012098400243C1F8CA
:1003400000217047164A174990420A6802D842F0C5
:10035000080201E022F008020A60134A904203D921
:100360000A6842F010020A600A6822F007020A6076
:1003700001D8086810E00D4A00EB02030C4A9342D2
:1003800003D8086840F0010006E00A4B1844904288
:1003900003D8086840F002000860002070470000A1
:1003A00000127A000020024000366E01FFC991FE63
:1003B000FF356E01FF9323FD00B5104A0346D06858
:1003C000C007FCD100F034F8106940F00200106161
:1003D0005361106940F040001061D068C007FCD143
:1003E000D068400701D50420D060D068800601D5D0
:1003F0002020D0605DF804EB00F012B8002002402D
:1004000070B50D460646002405E000BF06EB8420CB
:10041000FFF7D2FF641CAC42F8D3002070BD00008F
:100420000248016941F080010161704700200240EB
:100430000348024941600349416070472301674511
:1004400000200240AB89EFCD10B5104A0C460346A0
:10045000D068C007FCD1FFF7EBFF106940F0010046
:1004600010611C60D068C007FCD1D068400701D57E
:100470000420D060D068800601D52020D0602420E0
:10048000D060BDE81040FFF7CBBF00000020024065
:10049000024881680278114481607047040000209E
:1004A000074810B5016841F010010160032000F019
:1004B00067F80F2000F006F800F024F8002010BDC7
:1004C0000020024070B50D4D04464FF47A71287833
:1004D000B1FBF0F00A490968B1FBF0F000F062F8F6
:1004E00048B9102C07D200222146501E00F028F8EF
:1004F00000206C6070BD012070BD00000400002071
:10050000100000200C4808B5816941F001018161AB
:10051000816901F001010091C16941F08051C1611F
:10052000C06900F0805000900448416821F0E0610B
:1005300041F00071416008BD001002400000014020
:10054000F0B40E4B1B680C46C3F30223C3F107053E
:10055000042D00D90425191D072901D2002300E02C
:10056000DB1E012606FA05F1491E214099409E40F6
:10057000761E16403143F0BC00F054BB0CED00E099
:10058000064900F0070208684FF6FF03184040EAEA
:100590000220034A10430860704700000CED00E0A1
:1005A0000000FA0510B5401EB0F1807F01D3012094
:1005B00010BD4FF0E02460610F21601700F032FBA6
:1005C0000020A06107202061002010BDFEE7000090
:1005D0000B4910B5886001F1140000F053FB084886
:1005E0000C3000F0B5F906481C3000F0D7F90020B7
:1005F000FFF768FE0248BDE81040401C00F002B85A
:100600005C00002070B504000BD02078062808D8C4
:1006100061780F2905D8A178032902D8E178032948
:1006200001D9022070BD184951F82050801CC0B279
:10063000FFF76CFE60780F2108280FD22A6880002F
:1006400081408A432A60E078A17840EA810061789D
:100650008900884029680843286012E00F2810D8D4
:10066000800020388140686888436860E078A1781D
:1006700040EA810061788900203988406968084330
:100680006860002070BD00001400002070B505688F
:10069000044646684FF0E021002008618861486107
:1006A000486A20F4E020486200F042F885F30888A8
:1006B00002480460B446BDE87040604708ED00E0C1
:1006C00070B5044600F1200100F022FB6088218B08
:1006D000144E40EA014030612079002821D10025E4
:1006E0001CE00020F06022782918914206D22144B3
:1006F000C20049799140F2681143F160401CC0B2D8
:100700000428F0D33069F1682844FFF79DFE1DB935
:10071000D6E90310FFF798FE2D1DEDB22078A84210
:10072000DFD870BD30000020FEE7FEE77047000014
:100730000C480021416002680B4B1A4002600268BD
:1007400042F00102026002689207FCD5C16181613A
:10075000142242610648054A42600170417081706E
:100760000020704700100240FFFFFEFE00127A00DA
:10077000440000207047000078B5054634488542A3
:100780002DD8344C2068400CC00704D0324E60682D
:1007900040F4803007E020684008C0071FD02F4E8B
:1007A000606820F480306060002000902C48854212
:1007B00002D904208DF801002A48854202D902207E
:1007C0008DF800000121684600F052F803216846C8
:1007D00000F04EF8B5FBF6F0811E0F2901D3022080
:1007E00078BD616821F47011616061681E4A02EB96
:1007F000804001436160206840F08070206042F2D8
:100800001071084600E008B32268920101D4401E2E
:10081000F9D2606820F003006060606840F0020078
:10082000606000E091B16068C0F38100022801D0EF
:10083000491EF7D20D489DF8011001709DF8021075
:1008400041709DF803108170002078BD032078BDB1
:1008500000A24A040010024000127A0000093D0084
:1008600000512502001BB7000000F8FF44000020E3
:1008700010B5B0B3234A244B31B1012913D002295A
:1008800020D003293CD12DE0C1780F2938D85168F8
:1008900021F0F00151605168C47841EA04115160BF
:1008A000C07898702AE04178072929D8516821F446
:1008B000E06151605168447841EA04215160407818
:1008C00018701BE0817807291AD8516821F460510B
:1008D00051605168847841EAC42151608078587031
:1008E0000CE00DE0017803290AD8516821F4404159
:1008F00051605168007841EA80305060002010BD9E
:10090000022010BD001002404400002010B50E4C23
:1009100080B1012801D0022010BD0520FFF7F6FCB0
:10092000206840F4803020602068400CC007FBD075
:10093000002010BD206840F00100206020684008C1
:10094000C007FBD0F4E7000000100240FFF7A0BD95
:100950004FF0E02100220A610378012B0B6915D0CA
:1009600023F004030B614378012B0B6911D023F0B2
:1009700002030B6143685B1E4B618A61807801282A
:1009800003D1086940F001000861704743F0040397
:10099000E8E743F00203ECE770470000FEB504000F
:1009A0007ED02078854951F82050002D79D001283B
:1009B00078D01220FFF79CFC2078002873D0012803
:1009C00072D01220FFF794FC5FF00300FFF79EFC4B
:1009D00023780A220026022003210127002B7DD044
:1009E000012B7CD08DF800708DF801208DF80870F7
:1009F0005FF00B028DF809208DF803108DF80200CE
:100A00006846FFF7FFFD8DF80B608DF80A7002A8AD
:100A1000FFF7F8FDEE602E616E61AE60AE6160784A
:100A2000A178400340EA0130E17840EAC120217911
:100A300040EA8120617940EA4120A17940EA012021
:100A4000E17940EAC110217A40EA8110617A40EAF6
:100A50004110A17A40EA0110E17A40EAC100217B0D
:100A600040EA8100617B40EA4100A17B0843E968DC
:100A70000843E860E07B217C800340EA0130617C30
:100A800040EAC120A17C40EA8120E17C40EA41208B
:100A9000217D40EA0120617D40EA8110A17D04E0D2
:100AA00060E05DE060E061E065E040EA4110E17D2A
:100AB00001F00F010843296908432861207E617E07
:100AC000800240EA4120A17E40EA0120E17E40EA26
:100AD000C110217F40EA8110617F01E050E057E0C2
:100AE00040EA4110A17F40EA0110E17F40EAC100E5
:100AF00094F8201040EA810094F8211040EA410067
:100B000094F822100843696908436861207888B323
:100B100000F098F80746606A000100F0B7FA064650
:100B2000384600F0B3FA314600F0CEF9074600F03F
:100B30008DFA86B2304600F0A9FA394600F004FB7F
:100B4000042100F0B2FB00F081FAC0B266F31F107E
:100B500080B2A860208D40BAA8612868000723D51C
:100B60000120FEBD0220FEBD112023E70E20FFF76D
:100B7000CDFB03E015E01120FFF7BAFB022025E7CB
:100B80008DF8006009238DF801308DF8086031E799
:100B90008DF800608DF808608DF801008DF809105F
:100BA0002AE700F05FF8B5E7E86840F00800E86081
:100BB000E86840F00400E8600020FEBD500000201E
:100BC0000348006803498877084600F0D1B8000060
:100BD00004380140AC000020FEE7000010B50628F4
:100BE00004D80F2902D81AB1012A01D0022010BD61
:100BF0000B4B53F820008B00082901D2046801E058
:100C00004468203BDC4014F0030F05D001238B40E7
:100C100022B10361002010BD032010BD4361F9E73C
:100C2000140000200907090E002804DB00F1E02071
:100C300080F80014704700F00F0000F1E02080F809
:100C4000141D704706490878042801D2012202E0E9
:100C50000222001F82404968D0B2B1FBF0F0704719
:100C60004400002006494878042801D2012202E00D
:100C70000222001F82404968D0B2B1FBF0F07047F9
:100C80004400002010B5040004D06068FFF75AFB50
:100C900070B901E0022010BD2078FFF737FE38B9A7
:100CA0006068FFF769FD0C4A616800285160F2D066
:100CB0000A48016841F00101016042F210710268C6
:100CC0005208D20701D1491EF9D2416821F003012F
:100CD0004160032010BD00004400002000100240CD
:100CE000FFF7DEFB0448FFF773FC0448FFF78AFCBC
:100CF000FFF7A8FAFCE70000AC000020000000208D
:100D0000002301E0C1545B1C9342FBD370470000F9
:100D100010B5CA780271052A1AD2DFE802F003136F
:100D200019191600B1F8012052BA4280002205E0DC
:100D30008B1884181B79521C6371D2B203789342CA
:100D4000F6D805E00121017702E0898849BA81617E
:100D5000017800F124028A5C4275091DC9B2203075
:100D6000FFF79FFA0149886010BD000030000020A5
:100D70002DE9F0411F4D04464FF001082878002668
:100D800004F1200758B194F820102170E07F491D2C
:100D900088422AD384F81D80E677BDE8F081A07FE1
:100DA000AB281AD06E606E70192200213846FFF70A
:100DB000A7FFE6776868B0F1AB3FEED185F8008019
:100DC000192200213846FFF79BFFE677BDE8F04186
:100DD00001220D210220FFF701BF69786A6888406F
:100DE0001043083168606970E4E7A27F411CE17735
:100DF000C255D2E73000002090EA010F48BF81F0D1
:100E0000004100F1B281421A3CBF801A89184FEAB2
:100E1000D0524FF07F4C1CEA410FA2EBD15318BFC8
:100E20009CEA026F00F03B804FF0004C4CEA00203F
:100E30004CEA012121FA03FC10EB0C0C1ED202F14A
:100E4000FF325FEA1C2040EBC25038BF70471CF0F5
:100E50007F0F4FEA400C18BFBCF17F4F38BF70477F
:100E6000C3F12003994008BF20F00100BCF17F4F7F
:100E700038BF7047A0F1C04000F061B94FEA3C00B4
:100E8000000A40EBC25028BF1CF0FF0F4FEA400C95
:100E9000E6D018BFBCF17F4F38BF7047EAE79CEA45
:100EA000026F05D010EA5C0F08BF00F000407047E9
:100EB00010B500F0FEF800BF64FBBE3E014800F034
:100EC000C2B900BF0000C07F4FF47F0C1CEAD012F3
:100ED0001EBF1CEAD11392EA0C0F93EA0C0F00F02C
:100EE000858090EA010F48BF42F4807240F4000C04
:100EF00041F400002CF07F4120F07F4000B581429A
:100F0000A2EB03020FF2081CACEB504EC0F1000044
:100F10009EF800E04FEA4E0E00FB0EFC38BF490081
:100F20004FEA2C1C02F5FA020CFB0EF34FEACE1E20
:100F30004FEA112C4FEAC1210EEB635E42EB2242D5
:100F40000EFB0CFC4FEA1C5300FB03114FEA112C63
:100F50004FEA01310EFB0CFC4FEADC4C00FB0C119C
:100F6000C14228BF09184CEB03335DF804EB10EBCA
:100F7000410143EBC250B2F57C0F38BF704729D511
:100F800012F0F00F1CBF00F1C04000F000407047AD
:100F9000008182838485868788898B8C8D8E8F9152
:100FA0009293959697999A9C9D9FA0A2A3A5A7A876
:100FB000AAACAEB0B2B3B5B7B9BCBEC0C2C5C7C9A2
:100FC000CCCED1D4D7D9DCDFE2E6E9ECF0F3F7FA06
:100FD000FE0000004FEA400C0CF1807CBCF17E4F1B
:100FE00028BF7047B0F1C04000F0A9B890EA010FE7
:100FF0000CEAD11348BF42F48072624538BF6345A2
:1010000007D213F47F0F16D080EA010000F00040F1
:10101000704710B500F04DF8097EFC3E00F005B8B1
:1010200080EA010000F00040704780EA010000F013
:10103000004000F084B812F47F0F04BF02487047EC
:1010400080EA010000F07BB80000C07FC10DD1F143
:101050009E0206DB4FEA002343F0004323FA02F02E
:101060007047004207D54FEA4001B1F1FE4F02D26E
:101070004FF00000704710B500F01BF84992248033
:10108000002070476FEA200070470000B0FA80F33C
:1010900010FA03F2C3F19D030AD0D90501EB122027
:1010A000530638BF704700F1010008BF20F001006F
:1010B00070470EF1020E2EF0030E5EF8044B244230
:1010C00004D44FEA4102B2F17F4F11D84FEA4003F6
:1010D000B3F17F4F0CD80ED14FEAD07CB2F17F4FE5
:1010E0000CEB4C0C0CF1020C08BF4CEBD17C04E077
:1010F0004FF0080C01E04FEAD17C0CEB4C0324FAD2
:1011000003F404F00704B4F1040C06D20EEB840CD3
:10111000BDE810404CF0010C6047DFE80CF0070818
:1011200002024FF00040A0F5800010BD08464200CA
:1011300018BFD2F1807288BF00F0004010BDFF21BF
:1011400041EAD050C005704780F0004090EA010F9E
:101150007FF559AE81F0004100F007B890EA010F29
:1011600048BF81F000413FF54EAE421A04D882F0EC
:101170000042A0EB020011444FEAD0524FF07F4CE6
:101180001CEA410FA2EBD15318BF9CEA026F4AD070
:101190004FF0004C4CEA00204CEA012121FA03FCFC
:1011A000B0EB0C0C0FD412F0FE0F36D05FEA4C00FF
:1011B0001DD5001240EBC25038BF70471CF03F0FE6
:1011C00018BF70470BE0A2F101025FEA1C2040EB60
:1011D000C25038BF70471CF07F0F18BF7047C3F173
:1011E0002003994014BF401E20F001007047800882
:1011F0004FEA122308BF7047B0FA80FCA2EB0C0242
:10120000CCF1280C60FA0CF093EA122F04BF00EB2B
:10121000C25070474FEAC3707047130A5FEADC1090
:1012200008BF7047F6E79CEA026F04D010EA5C0F33
:1012300008BF0020704710B5FFF73BFF40DFF63EC8
:1012400081F0004070470CF00F03092B08BF082005
:1012500000F051800A2B0BD0082B18BF704708BF35
:101260001CF0400F0AD04FF000004FF00001704713
:101270001CF0400F18BF4FF0004070471CF0100FDB
:1012800008D020F0704300F07F4242EAD3014FEAD9
:101290004370704700F0604021F07F4242EA000254
:1012A00001F07F4040EA727070474FF0FF0212EA8F
:1012B000D0521CBF92F0FF038B42C2BFD14200EB61
:1012C000C1507047002A0AD0002B0BD0002900F033
:1012D0000040A4BF40F0FE4040F40000704700F022
:1012E0000040704743024FF00B0C18BF4CF0806C6D
:1012F0007FF4E4AD70471CF4801F11D01CF4E02F84
:1013000003D06FEACC31490070474FF04050EFF303
:10131000008222F0704242EA000282F300887047A5
:101320004FF0000070470000481300080000002044
:10133000AC00000028010008F4130008AC000020F5
:101340009C060000440100080003020001000000A8
:10135000100000000000000000127A0000080140A8
:10136000000C014000100140001401400018014031
:10137000001C0140002001400000000000000000AF
:10138000000000000000000000000000000000005D
:101390000000000000000000003801400044004050
:1013A0000048004001020D000300000000000000A2
:1013B00000000100000000000100000000A24A043B
:1013C000000100000000000000000000000000001C
:1013D000000000000000000000000000000000000D
:1013E0000000000000C2010000000000000000003A
:0413F00000000000F9
:04000005080000ED02
:00000001FF
